:020000040800F2
:1000000060D7002071110008511100085311000839
:10001000571100085B1100085F1100080000000084
:100020000000000000000000000000006311000854
:10003000651100080000000023FB0008F1E1000842
:100040008B1100088B1100088B1100088B11000820
:100050008B1100088B1100088B1100086911000832
:100060006B1100086D1100088B1100088B1100083E
:100070008B1100088B1100088B1100088B110008F0
:100080008B1100088B1100088B1100088B110008E0
:100090008B1100088B1100088B11000867110008F4
:1000A0008B1100088B1100088B1100088B110008C0
:1000B0008B1100088B1100088B1100088B110008B0
:1000C0008B1100088B1100088B1100088B110008A0
:1000D0008B110008AB3A000857E4000837E300082A
:1000E0008B1100088B1100088B1100088B11000880
:1000F0008B1100088B1100088B1100088B11000870
:100100008B1100088B1100088B1100088B1100085F
:100110008B1100088B1100088B1100088B1100084F
:100120008B1100088B1100088B1100088B1100083F
:10013000DFF80CD00FF02EFA0048004791100008AD
:1001400060D700201FB500BF00BF00BF00BF22E086
:1001500003A8002102AB4FF40042CDE90010FA4899
:1001600009F0AAFA0446F9A0844201D103F0A2FBE7
:10017000F7A0844201D103F0AAFBF6A0844201D18A
:1001800003F0B1FB03A8002101230A46CDE90010CA
:1001900008460DF084F8DBE71FB500BF00250026F8
:1001A00000BF36E003A8002102AB4FF40042CDE9C6
:1001B0000010EA4809F080FA044603A805F032FF6F
:1001C000E2A084420AD14DB90125002603F047FB85
:1001D0004FF4FA7003F036FA03F058FBDCA08442C7
:1001E0000AD14EB90126002503F045FB4FF4FA7001
:1001F00003F028FA03F04AFB03A805F061FF00248E
:1002000003A8002101230A46CDE9001008460DF09D
:1002100046F8C7E70EB500BF00BF08E002A80021FE
:1002200001230A46CDE9001008460DF038F8F5E73D
:100230000EB500BF00BF00BF08E002A800210B46BA
:100240000122CDE9001008460DF029F8F5E78CB041
:10025000202102A80EF013FE002600BFADE003F03F
:10026000C9FA074600BF00BF00BF05F01BFD0646E8
:1002700000BF05F014FB00BFB9480078401CB84926
:10028000087008460078012801D105F0C1FE00BFC2
:1002900005F0E6FA00BF304605F008FD00BF00BFDC
:1002A00000BF3A46AFA102A80FF07CFC0BA84FF4A8
:1002B00004731E2202A90090AF4809F085FC00BF1C
:1002C00000BF00BF05F0EEFC064600BF05F0E7FAF0
:1002D00000BFA3480078401EA14908700846007876
:1002E000D0B905F0D7FEA548008800280BDD00BF77
:1002F00005F0B6FA00BF304605F0D8FC00BF00BFDD
:1003000006F068FB11E000BF05F0AAFA00BF304616
:1003100005F0CCFC00BF08E000BF05F0A1FA00BF6B
:10032000304605F0C3FC00BF00BF00BF0BA8002192
:100330000AAB4FF40042CDE90010914809F0BCF936
:100340000446BDF82C0040B905228EA120460EF0CF
:10035000C6FD08B9012500E00025012D24D138464D
:100360000EF05DFF80468948016840460EF0CCFFE4
:1003700009D338460EF053FF804685480168404651
:100380000EF0CCFF08D20BA80023092281A1009017
:10039000834809F019FC07E00BA800230A2281A179
:1003A00000907F4809F010FC0BA8002132230A4678
:1003B000CDE9001008460CF072FF50E70EB500BF03
:1003C00008E002A80021C8230A46CDE9001008462B
:1003D0000CF065FFF5E71FB50024002700BF36E0ED
:1003E00003A8002102AB4FF40042CDE900106C4895
:1003F00009F062F90546BDF80C0040B9082265A174
:1004000028460EF06CFD08B9012600E00026012EFA
:1004100010D137B9601C84B2B4F5FA7F05D1012739
:1004200003E0601E84B204B900272146604802F050
:100430005BFC03E021465E4802F056FC03A8002165
:100440000A230A46CDE9001008460CF028FFC7E74A
:1004500098B000BF42E120210CA80EF010FD202131
:1004600004A80EF00CFD17A805F0DCFD14A803F09D
:1004700065F870BB9DF853000EF0D6FE00224D4B80
:10048000CDE900010EF053FE804689469DF85200EA
:100490000EF0CAFE42464B46CDE902010EF02EFD9B
:1004A00006460F469DF851000EF0BEFE8046002223
:1004B000404B0EF03CFECDE902019DF850000EF0DD
:1004C000B3FECDE90001DDE902230EF017FD04467D
:1004D0000D4617A805F0F4FD22462B4636A10CA8C0
:1004E0000FF060FB32463B4638A104A80FF05AFBE0
:1004F00017A84FF404731E2204A90090384809F08D
:1005000063FB17A84FF404731E220CA90090354812
:1005100009F05AFB17A8002116AB4FF40042CDE9B1
:100520000010174809F0C8F88246BDF85C0040B9D1
:10053000052214A150460EF0D2FC18B94FF0010B61
:1005400054E053E050E000007C4100204F4E00009A
:100550004F46460053544F5000000000AC4100206D
:10056000E000002067756164752031313A30302039
:1005700025640D0A000000003C420020A400002079
:100580009C4200206175746F6D0000001400002013
:10059000100000206F70656E4C73656E00000000E7
:1005A000CC420020636C6F73654C73656E00000075
:1005B00000040040000024407368696475203131F4
:1005C0003A303020252E32660D0A000077656E64C1
:1005D000752031313A303020252E32660D0A000068
:1005E000DC4100200C4200204FF0000BBBF1010F5A
:1005F00069D1FA4800680EF043FE804622462B4639
:100600000EF052FE09D217A800230322AFF2C40154
:100610000090F34809F0D8FA1CE0F24800680EF0A8
:100620002FFE804622462B460EF056FE09D217A812
:1006300000230422AFF2E8010090E94809F0C4FA6F
:1006400008E017A800230522AFF2F8010090E44863
:1006500009F0BAFAE44800680EF012FE804632460D
:100660003B460EF021FE12D217A800230322AFF260
:1006700024110090DD4809F0A7FA17A800230322EF
:10068000AFF238110090DA4809F09EFA1BE0D64824
:1006900000680EF0F5FD804632463B460EF01CFE2B
:1006A00011D817A800230422AFF25C110090CF48A4
:1006B00009F08AFA17A800230422AFF26C11009007
:1006C000CB4809F081FA17A800214FF4FA730A46C3
:1006D000CDE9001008460CF0E2FD00BFBBE61FB5F7
:1006E00000BF20E003A8002102AB4FF40042CDE997
:1006F0000010BE4808F0E0FF0446AFF2B01084429C
:1007000002D102F09CFE05E0AFF2BC10844201D1A0
:1007100002F08FFE03A8002164230A46CDE90010F1
:1007200008460CF0BCFDDDE71FB5B2A600BF00BF58
:1007300042E003A8002102AB4FF40042CDE90010D3
:10074000B14808F0B9FF044603A8002102AB4FF4FA
:100750000042CDE90010AD4808F0AEFF054603A801
:10076000002102AB4FF40042CDE90010A84808F088
:10077000A3FF0646BDF80C00A0B903A805F052FC83
:1007800020460EF0ECF9642002F05CFF28460EF0E3
:10079000E6F9642002F056FF30460EF0E0F903A8B7
:1007A00005F08EFC03A800214FF4FA730A46CDE948
:1007B000001008460CF073FDBBE70EB500BF09E062
:1007C00002A800214FF4FA730A46CDE9001008464A
:1007D0000CF065FDF4E792B000BF00BF00BF00243D
:1007E00000BFC5E100200F9010900D900E900B906F
:1007F0000C9009900A90079008900590069003903D
:10080000049000220FA9834802F0E4FE00BF00BF5D
:1008100000BF05F047FA044600BF05F040F800BFEE
:100820007D480078401C7C49087008460078012803
:1008300001D105F0EDFB00BF05F012F800BF204626
:1008400005F034FA00BF00BF00BF052273A10FA856
:100850000EF045FB40B911A84FF4007306226FA1BA
:100860000090704809F0B0F90522AFF2E8210FA816
:100870000EF035FB00284BD111A84FF4007306226F
:10088000AFF200310090674809F09EF901220DA9EE
:10089000604802F09FFE02A90DA80FF0DBFE52494E
:1008A000086002220BA95B4802F094FE02A90BA883
:1008B0000FF0D0FE5C490860032209A9554802F0F8
:1008C00089FE02A909A80FF0C5FE44490860042268
:1008D00007A9504802F07EFE02A907A80FF0BAFE51
:1008E00040490860052205A94A4802F073FE02A9A2
:1008F00005A80FF0AFFE4D490860062203A9454840
:1009000002F068FE02A903A80FF0A4FE484908609F
:10091000052248A10FA80EF0E2FA50B911A84FF431
:1009200000730322AFF2DC310090304809F04CF93B
:10093000CFE0052241A10FA80EF0D1FA50B911A8BD
:100940004FF400730422AFF2F8310090274809F009
:100950003BF9BEE00822AFF2C4310FA80EF0BFFA97
:1009600048B911A800230922AFF2D83100903548C8
:1009700009F02AF9ADE00922AFF2D8310FA80EF044
:10098000AEFA48B911A800230A22AFF2E83100906C
:100990002C4809F019F99CE007222BA10FA80EF0B2
:1009A0009EFA48B911A800230322AFF260410090DB
:1009B0000F4809F009F98CE0082225A10FA80EF0D4
:1009C0008EFA48B911A800230422AFF27C410090AE
:1009D000074809F0F9F87CE040E00000080000203A
:1009E0007C4100200C000020000000206C42002010
:1009F000AC41002067756164752031313A30302098
:100A000038392E3030000000DC4100200C4200203C
:100A10003C42002058C90020E00000206D616E6D4E
:100A20006D0000009C420020040000201000002007
:100A3000140000206F70656E66000000636C6F73B9
:100A400066000000CC4200206F70656E77696E0012
:100A5000636C6F736577696E000000000722FEA16A
:100A60000FA80EF03CFA68B90FA9FDA00FF08AF8A4
:100A700011A800230322AFF22C510090F94809F08D
:100A8000A3F826E00822F8A10FA80EF028FA68B90A
:100A90000FA9F3A00FF076F811A800230422AFF2FB
:100AA00050510090EF4809F08FF812E00722F1A1B1
:100AB0000FA80EF014FA60B90FA9E9A00FF062F8C0
:100AC00011A800230522AFF274510090E54809F007
:100AD0007BF800BF00BF00BF05F0E4F8044600BF8C
:100AE00004F0DDFE00BFE5480078401EE3490870D1
:100AF00008460078D0B905F0CDFAE1480088002812
:100B00000BDD00BF04F0ACFE00BF204605F0CEF8C0
:100B100000BF00BF05F05EFF11E000BF04F0A0FEC3
:100B200000BF204605F0C2F800BF08E000BF04F097
:100B300097FE00BF204605F0B9F800BF00BF00BF18
:100B4000D048B0F800046FF30E00CE49A1F80004BD
:100B50000020B1F80014C1F30E01CA4A505411A884
:100B60000021C8230A46CDE9001008460CF097FB87
:100B700038E601B58EB000200A900E980E9004F071
:100B8000F9FE02F0B2FF0C90BF490C980968B0FB67
:100B9000F1F00B900B980DF049FB03F0F7F80DA85E
:100BA00009F0B6FD04F084FF0DAA0121084605F006
:100BB0001EFB00BF00BF00BF05F074F80A9000BF25
:100BC00004F06DFE00BFAD480078401CAB490870D2
:100BD00008460078012801D105F01AFA00BF04F098
:100BE0003FFE00BF0A9805F061F800BF00BF00BFDC
:100BF0000DAB0A22A5A1A84808F065FB0DAB0A229F
:100C0000A6A1A94808F05FFB0DAB0A22A7A1AA483C
:100C100008F059FB0DAB0A22A8A1AB4808F053FB22
:100C20000DAB0A22A9A1AC4808F04DFB0DAB0A227E
:100C3000AAA1AF4808F047FB0DAB0A22ADA1B0480E
:100C400008F041FB0DAB0A22AEA1864808F03BFB41
:100C50000DA8032100220592CDE906210890104637
:100C60004FF480616622AA4BCDE90132CDE9031031
:100C700004200023AFF2A142A6A10090A8480AF0E8
:100C80007EF90DA8032100220592CDE906210890E6
:100C9000104680210C22A34BCDE90132CDE903108F
:100CA00006200023AFF2ED429FA10090A2480AF077
:100CB00066F90DA8032100220592CDE906210890CE
:100CC000104680210C229D4BCDE90132CDE9031065
:100CD00007200023AFF2AF5299A100909C480AF080
:100CE0004EF90DA8032100220592CDE906210890B6
:100CF000104680210C22974BCDE90132CDE903103B
:100D000008200023AFF2296293A1009095480AF0D1
:100D100036F90DA8032100220592CDE9062108909D
:100D2000104680210C22904BCDE90132CDE9031011
:100D300009200023AFF6E7028CA100908E480AF04C
:100D40001EF90DA8032100220592CDE90621089085
:100D5000104680210C22894BCDE90132CDE90310E8
:100D60000B200023AFF6911285A1009087480AF06E
:100D700006F90DA8032100220592CDE9062108906D
:100D8000104680210C22824BCDE90132CDE90310BF
:100D90000A200023AFF6DB127EA100907F480AF004
:100DA000EEF80DA8032100220592CDE90621089056
:100DB000104680210C227A4BCDE9013200230092AB
:100DC000CDE90310AFF6793276A179480AF0D7F869
:100DD0000DA8032100220592CDE9062108901046B6
:100DE00080210C22734BCDE90132CDE903100D2097
:100DF0000023AFF6C33270A1009071480AF0BFF82B
:100E00000DA8032100220592CDE906210890104685
:100E100080210C226B4BCDE90132CDE903100E206D
:100E20000023AFF60F4268A100906A480AF0A7F8C5
:100E30000DA8032100220592CDE906210890104655
:100E400080210C22644BCDE90132CDE903100F2043
:100E50000023AFF6BB42C1E06F70656E68756D0030
:100E600025730A007C410020636C6F736568756DA3
:100E70000000000068756D73746F7000E000002062
:100E8000A400002058C900205C0801084D795F715A
:100E90007565756500000000DC41002048756D5FD8
:100EA00071756575650000000C4200204C73656E1D
:100EB0005F717565756500003C4200204C6F775F7F
:100EC00071756575650000006C420020466C6167B5
:100ED0005F717565756500009C4200204C73656EFE
:100EE000636F6E74726F6C5F71756575650000007D
:100EF000CC42002057494E5F717565756500000052
:100F0000AC41002048554D5F717565756500000066
:100F1000E41200206C656431207461736B00000082
:100F20001C120020AC230020517565756557725F57
:100F30007461736B00000000E4220020742600201E
:100F4000517565756552645F7461736B00000000D4
:100F5000AC2500203C2900204C4F575F7461736B17
:100F60000000000074280020042C00204448545F36
:100F70007461736B000000003C2B00209431002052
:100F800050574D5F7461736B00000000CC3000203F
:100F9000CC2E002048435F7461736B00042E002048
:100FA0005C3400204C53454E5F7461736B0000004D
:100FB00094330020243700204D515F7461736B001F
:100FC0005C360020EC3900205446545F7461736B2A
:100FD0000000000024390020B43C00204CA1009007
:100FE0004E4809F0CCFF0DA8032100220592CDE95F
:100FF00006210890104680210C22494BCDE9013290
:10100000CDE9031010200023AFF6C76245A1009080
:10101000474809F0B4FF0DA946480BF0BDFC00BFDE
:1010200000BF00BF04F03EFE0A9000BF04F037FC92
:1010300000BF41480078401EC1B23F4801700078AF
:10104000D0B905F027F83D48008800280BDD00BF27
:1010500004F006FC00BF0A9804F028FE00BF00BFA1
:1010600005F0B8FC11E000BF04F0FAFB00BF0A98DD
:1010700004F01CFE00BF08E000BF04F0F1FB00BF5D
:101080000A9804F013FE00BF00BF00BF0FB000BD00
:101090008AB0482002F044FC4FF4A06000F06AF9E6
:1010A00002F0E0FA02F093FB47214FF4FA7002F0ED
:1010B000EBFA02F0C1FB02F085F802F0A7F902F0AA
:1010C000F9F84FF4165002F0A4FC0DF01BFD09A82E
:1010D00004F054FE09A8032100220592CDE906215F
:1010E000089010464FF480616622154BCDE901321D
:1010F000CDE9031003200023AFF2895211A1009023
:101100000C4809F03CFF09A805F01BF900BFFEE7F9
:1011100057494E5F7461736B00000000EC3B002088
:101120007C3F002048554D5F7461736B00000000E8
:10113000B43E002054010020E0000020A400002064
:101140001C0200207374617274207461736B000060
:10115000704700BFFEE700BFFEE700BFFEE700BF2D
:10116000FEE7704770477047704770477047000050
:101170000648804706480047FEE7FEE7FEE7FEE731
:10118000FEE7FEE7FEE7FEE7FEE7FEE77312000874
:10119000310100080CB50020019000906C480068F7
:1011A00040F480306A49086000BF6948006800F474
:1011B000003000900198401C0190009818B90198E7
:1011C000B0F5A06FF1D16248006800F4003010B1B2
:1011D0000120009001E0002000900098012843D1F8
:1011E0005C48006840F010005A49086008460068F2
:1011F00020F0030008600846006840F00200086024
:10120000534840685249486008464068486008466C
:10121000406840F4806048600846406820F47C10D4
:1012200048600846406840F4E81048600846006896
:1012300040F08070086000BF4548006800F0007012
:101240000028F9D04248406820F003004049486037
:101250000846406840F00200486000BF3C484068D3
:1012600000F00C000828F9D10CBD10B5FFF792FF73
:1012700010BD10B53648006840F0010034490860E0
:1012800008464068344908403149486008460068CB
:10129000324908402E4908600846006820F4802042
:1012A00008600846406820F4FE0048604FF41F00C4
:1012B0008860FFF7DAFF4FF000602949086010BD31
:1012C00010B5002100200022214B5B6803F00C01C7
:1012D00021B1042906D0082928D107E0214B224C4E
:1012E000236027E01F4B204C236023E0184B5B68F2
:1012F00003F47010164B5B6803F48032022303EB97
:10130000904022B9194B4343174C23600DE0104B1A
:101310005B6803F4003323B1144B4343124C236046
:1013200003E0104B4343104C236003E00D4B0E4C85
:10133000236000BF00BF064B5B68C3F303130C4C74
:10134000E15C094B1B68CB40074C236010BD0000DB
:1013500000100240002002400000FFF8FFFFF6FEF0
:1013600008ED00E000127A001800002000093D009E
:101370001C00002031490143314A1160704770B5AB
:10138000002100230F22C47804B32D4C246804F4F8
:10139000E064C4F5E064210AC1F10403CA40447862
:1013A00004FA03F18478144021430901254C06789E
:1013B000A155047804F01F050124AC4005786D1197
:1013C000AD0005F1E025C5F8004109E0047804F01E
:1013D0001F050124AC401C4D0678761145F82640C7
:1013E00070BD1A4A0A400243154B1B1F1A60704712
:1013F00039B1134A121D12680243114B1B1D1A60AA
:1014000006E00F4A121D126882430D4B1B1D1A6025
:101410007047042808D14FF0E021096941F0040128
:101420004FF0E022116107E04FF0E021096921F05F
:1014300004014FF0E0221161704700000000FA053E
:101440000CED00E000E400E080E100E080FFFF1F21
:1014500010B50446CC48844208D10121042000F094
:101460002DFB0021042000F029FB46E0C748844200
:1014700008D10121082000F021FB0021082000F004
:101480001DFB3AE0C248844208D10121102000F03F
:1014900015FB0021102000F011FB2EE0BD48844216
:1014A00008D10121202000F009FB0021202000F0BC
:1014B00005FB22E0B848844208D10121402000F019
:1014C000FDFA0021402000F0F9FA16E0B34884420A
:1014D00008D10121802000F0F1FA0021802000F0E5
:1014E000EDFA0AE0AE48844207D10121801500F0F0
:1014F000E5FA0021A01500F0E1FA10BD10B50121B8
:10150000084600F0DBFA0021012000F0D7FA10BDF8
:101510002DE9F0410246002500260020002300248A
:10152000002791F803C00CF00F0591F803C00CF0F0
:10153000100CBCF1000F03D091F802C04CEA050575
:1015400091F800C0BCF1000F31D0146800202BE0EE
:101550004FF0010C0CFA00F3B1F800C00CEA0306DE
:101560009E4220D183004FF00F0C0CFA03F7BC43CE
:1015700005FA03FC4CEA040491F803C0BCF1280FFF
:1015800006D14FF0010C0CFA00FCC2F814C00AE0BE
:1015900091F803C0BCF1480F05D14FF0010C0CFAD3
:1015A00000FCC2F810C0401C0828D1D31460B1F868
:1015B00000C0BCF1FF0F34DD546800202EE000F1C4
:1015C000080C4FF0010808FA0CF3B1F800C00CEA5F
:1015D00003069E4221D183004FF00F0C0CFA03F753
:1015E000BC4305FA03FC4CEA040491F803C0BCF1C7
:1015F000280F05D100F1080C08FA0CF8C2F8148085
:1016000091F803C0BCF1480F07D100F1080C4FF06E
:10161000010808FA0CF8C2F81080401C0828CED344
:101620005460BDE8F0814FF6FF71018002218170A6
:101630000421C17070470246002093680B400BB133
:10164000012000E0002070470146886880B27047A2
:1016500002460020D3680B400BB1012000E00020BF
:1016600070470146C86880B27047016170474161A8
:1016700070470AB1016100E041617047C160704785
:101680004FF480320A43826181618261826982699A
:10169000704702460020434B18684FF6807318408D
:1016A00040EA021008433F4B186070473E49C8614A
:1016B0007047F0B50A46002300240021002500F001
:1016C0000046B6F1004F02D1364EF16901E0354EC9
:1016D0007168C0F3034583B200F44016B6F5401FAD
:1016E00008D121F070612F4E766826F070662D4F7C
:1016F0007E6012E000F48016B6F5801F06D1032646
:1017000006FA05F4A14341F0706106E0460D36018A
:1017100003FA06F6B14341F0706122B1460D36017D
:1017200003FA06F6314300F00046B6F1004F02D14D
:101730001C4EF16101E01B4E7160F0BD30B500221E
:101740008B071C0F0F2303FA04F2164B08338C107F
:1017500053F824309343134C08348D1044F825304B
:1017600023468C1053F824308C07240F00FA04F41D
:1017700023430C4C08348D1044F8253030BD0A4901
:10178000DC3108607047000000080140000C014097
:10179000001001400014014000180140001C0140ED
:1017A000002001400000014000002042DF480068A6
:1017B00040F00100DD49086008464068DC49084007
:1017C000DA49486008460068DA490840D7490860A5
:1017D0000846006820F4802008600846406820F42D
:1017E000FE0048604FF41F0088607047CF490968C9
:1017F00021F48031CD4A11601146096821F480211D
:101800001160B0F5803F03D0B0F5802F0ED106E017
:10181000C649096841F48031C44A116007E0C349F0
:10182000096841F4A021C14A116000E000BF00BF77
:10183000704710B501460022002300204A11012AFA
:1018400002D1BA4C236806E0022A02D1B74C236ABF
:1018500001E0B64C636A01F01F02012494401C4071
:101860000CB1012000E0002010BD38B50020009030
:101870000024002500BF3120FFF7DBFF054600985C
:10188000401C00900098B0F5A06F01D0002DF2D060
:101890003120FFF7CEFF08B1012400E000242046EC
:1018A00038BD01460020A14A106820F0F80040EA47
:1018B000C10010607047A0490860704702460020D0
:1018C0009A4B586820F47C1042EA01031843974B66
:1018D0005860704798490866704701460020934A4F
:1018E000506820F003000843506070478F484068FC
:1018F00000F00C007047014600208C4A506820F030
:10190000F00008435060704701460020874A506845
:1019100020F4E06008435060704701460020834A8D
:10192000506820F4605040EAC1005060704729B10F
:101930007E4A527A02437D4B5A7204E07B4A527AC5
:1019400082437A4B5A7270477B49D831086070479E
:1019500001460020754A506820F44040084350601A
:1019600070470021714A20321170704A82F82010AD
:10197000012802D004280AD104E001216B4A203258
:10198000117005E00521694A2032117000E000BFA6
:1019900000BF70476949086070476449096A01439C
:1019A000624A11627047654944390860704730B532
:1019B00000210022002400235C4D6D6805F00C011D
:1019C00021B1042905D0082923D105E05C4D05602B
:1019D00022E05B4D05601FE0544D6D6805F4701208
:1019E000524D6D6805F48034022505EB92421CB916
:1019F000544D554305600BE04C4D6D6805F40035C2
:101A00001DB1504D5543056002E04D4D55430560F5
:101A100002E04B4D056000BF00BF444D6D6805F00E
:101A2000F0010909484D6B5C0568DD4045603F4D9C
:101A30006D6805F4E061090A434D6B5C4568DD4063
:101A400085603A4D6D6805F46051C90A3E4D6B5C86
:101A50004568DD40C560354D6D6805F44041890B32
:101A60003A4D6B5CC568B5FBF3F5056130BD29B136
:101A70002E4A526902432D4B5A6104E02B4A5269A7
:101A800082432A4B5A61704729B1284A926902431E
:101A9000264B9A6104E0254A92698243234B9A615E
:101AA000704729B1214AD2690243204BDA6104E030
:101AB0001E4AD26982431D4BDA61704729B11B4A25
:101AC000D2680243194BDA6004E0184AD2688243B4
:101AD000164BDA60704729B1144A12690243134B5E
:101AE0001A6104E0114A12698243104B1A6170476F
:101AF00012494039086070470F49C86470470B4964
:101B0000C87170470948406A40F0807007494862D0
:101B1000704701460020054A92680A400AB1012038
:101B200000E00020704701498872704700100240B1
:101B30000000FFF8FFFFF6FE000042428004424230
:101B400000127A0000093D002C0000203C0000201B
:101B500010B50446FB48844209D101218803FFF7F0
:101B6000ADFF00214FF48040FFF7A8FF32E0F648B8
:101B7000844209D101214804FFF7ADFF00214FF451
:101B80000030FFF7A8FF25E0F048844209D1012189
:101B90008804FFF7A0FF00214FF48020FFF79BFF90
:101BA00018E0EB48844209D10121C804FFF793FFF4
:101BB00000214FF40020FFF78EFF0BE0E548844240
:101BC00008D101210805FFF786FF00214FF480109E
:101BD000FFF781FF10BD2DE9F04786B005460E46A0
:101BE0000024A24600BFA1460027B08900B100BF73
:101BF0002F462C8A4CF6FF700440F08804432C8258
:101C0000AC894EF6F3100440B088318908437189DD
:101C100008430443AC81AC8A4FF6FF400440B089CE
:101C20000443AC8201A8FFF7C2FEC648874202D136
:101C3000DDF810A001E0DDF80CA0A88900F4004058
:101C400040B10AEBCA0000EB0A1031684900B0FB52
:101C5000F1F807E00AEBCA0000EB0A1031688900CE
:101C6000B0FBF1F86420B8FBF0F004012009642116
:101C700001FB1089A88900F4004040B1322000EB3C
:101C8000C900B0FBF1F000F00700044308E0322087
:101C900000EB09106421B0FBF1F000F00F000443E9
:101CA0002C8106B0BDE8F0874FF416510160002189
:101CB0008180C18001810C21418100218181704797
:101CC00010B502460020108A4FF2FF0318400B881F
:101CD0004C8823438C882343CC88234318431082A9
:101CE00010BD0021018041808180C180704721B1F9
:101CF000828942F40052828104E082894DF6FF73AA
:101D00001A4082817047F0B5034600240026002562
:101D1000002040F66A17B94200D100BF1846C1F34F
:101D2000421401F01F06012707FA06F5012C01D124
:101D30000C3004E0022C01D1103000E014301AB154
:101D400007682F43076002E00768AF430760F0BDF4
:101D50001AB1838A0B43838202E0838A8B43838296
:101D60007047028A4FF6F0731A400282028A0A43D1
:101D70000282704782894FF2FF731A408281828902
:101D80000A438281704721B1828942F00202828136
:101D900004E082894FF6FD731A4082817047028AFF
:101DA0004FF6DF731A400282028A0A4302827047AA
:101DB00021B1028A42F48042028204E0028A4BF698
:101DC000FF731A4002827047C1F308028280704795
:101DD00001468888C0F308007047818941F00101FD
:101DE00081817047028BD2B20283028B42EA0122C8
:101DF00002837047028B02F47F420283028B0A4304
:101E00000283704721B1828A42F02002828204E07C
:101E1000828A4FF6DF731A408282704721B1828A2C
:101E200042F01002828204E0828A4FF6EF731A4079
:101E30008282704721B1828A42F00802828204E0E5
:101E4000828A4FF6F7731A408282704721B18289E5
:101E500042F40042828103E08289C2F30E02828151
:101E6000704721B1828A42F40062828204E0828A51
:101E70004FF2FF731A4082827047828A4FF6FB73DB
:101E80001A408282828A0A438282704721B1828A02
:101E900042F00202828204E0828A4FF6FD731A4009
:101EA0008282704702460020B1F5007F00D100BF5A
:101EB00013880B400BB1012000E00020704701F4B3
:101EC0000072B2F5007F00D100BFCA4302807047A4
:101ED00070B50246002400230025002040F66A1653
:101EE000B14200D100BFC1F3421501F01F0301262A
:101EF00006FA03F3012D02D19689334006E0022D44
:101F000002D1168A334001E0968A33400C12012632
:101F100006FA04F41688344013B10CB1012000E035
:101F2000002070BD10B50022002340F66A14A142C3
:101F300000D100BF0A1201249440A3B2DC43048004
:101F400010BD00000038014000440040004800403F
:101F5000004C00400050004010B50446FE4884424A
:101F600008D10121C014FFF7A9FD0021E014FFF7FB
:101F7000A5FDC4E0B4F1804F08D101210846FFF768
:101F8000AAFD00210120FFF7A6FDB8E0F348844236
:101F900008D101210220FFF79EFD00210220FFF75A
:101FA0009AFDACE0EE48844208D101210420FFF7FD
:101FB00092FD00210420FFF78EFDA0E0E948844255
:101FC00008D101210820FFF786FD00210820FFF736
:101FD00082FD94E0E448844208D101211020FFF7FB
:101FE0007AFD00211020FFF776FD88E0DF4884426B
:101FF00008D101212020FFF76EFD00212020FFF7EE
:102000006AFD7CE0DA48844208D101214014FFF7E0
:1020100055FD00216014FFF751FD70E0D548844262
:1020200009D10121C804FFF749FD00214FF4002028
:10203000FFF744FD63E0D048844209D1012108053F
:10204000FFF73CFD00214FF48010FFF737FD56E00D
:10205000CA48844209D101214805FFF72FFD00211C
:102060004FF40010FFF72AFD49E0C548844208D12B
:1020700001214020FFF72FFD00214020FFF72BFD1D
:102080003DE0C048844208D101218020FFF723FDB4
:1020900000218020FFF71FFD31E0BB48844208D1BA
:1020A00001218015FFF717FD0021A015FFF713FD93
:1020B00025E0B648844209D101210804FFF7FEFC5F
:1020C00000214FF48030FFF7F9FC18E0B04884425B
:1020D00009D101214804FFF7F1FC00214FF4003041
:1020E000FFF7ECFC0BE0AB48844208D101218804E7
:1020F000FFF7E4FC00214FF48020FFF7DFFC10BD68
:1021000000220288944B98420ED0994B98420BD0F3
:10211000B0F1804F08D0914B984205D0904B984237
:1021200002D0904B984204D14FF68F731A404B88DF
:102130001A438D4B984207D08C4B984204D04FF6EF
:10214000FF431A40CB881A4302808B8883850B8813
:102150000385814B98420BD0854B984208D08B4B1E
:10216000984205D08A4B984202D08A4B984201D1BE
:102170000B7A038601238382704770B50024002206
:102180000023058C4FF6FE7635400584028C83884B
:10219000048B4FF68F752C40B51E2C400D882C43B8
:1021A000751E2A400D892A434D882A436A4DA8424C
:1021B0000BD06F4DA84208D0744DA84205D0744D85
:1021C000A84202D0734DA84213D14FF6F7752A40AA
:1021D0004D892A434FF6FB752A408D882A434FF6D6
:1021E000FF652B404FF6FF552B408D892B43CD8942
:1021F0002B4383800483CD888586028470BD70B5AF
:10220000002400220023058C4FF6EF76354005842C
:10221000028C8388048B48F6FF752C404FF6FF45EF
:102220002C400D884FF6FF7606EA05252C434FF625
:10223000DF752A400D8906EA05152A434D8806EA0E
:1022400005152A43444DA84202D0494DA8421DD14C
:102250004FF67F752A404D894FF6FF7606EA051541
:102260002A434FF6BF752A408D8806EA05152A4392
:102270004FF6FF352B404FF2FF752B408D8906EA54
:1022800085052B43CD8906EA85052B43838004838E
:10229000CD880587028470BD70B50024002200231C
:1022A000058C4FF6FF6635400584028C8388848B4D
:1022B0004FF68F752C404FF6FC752C400D882C4343
:1022C0004FF6FF552A400D894FF6FF7606EA0525A1
:1022D0002A434D8806EA05252A431F4DA84202D00D
:1022E000234DA8421DD14FF2FF752A404D894FF66C
:1022F000FF7606EA05252A434FF6FF352A408D88EA
:1023000006EA05252A434EF6FF752B404DF6FF756C
:102310002B408D8906EA05152B43CD8906EA051564
:102320002B4383808483CD888587028470BD70B5FC
:10233000002200230024058C4EF6FF7635400584EC
:10234000038C8488828B48F6FF752A404FF6FF4540
:102350002A400D8820E00000002C014000040040CD
:1023600000080040000C0040001000400014004035
:1023700000340140004C0140005001400054014035
:1023800000180040001C00400020004000400140B8
:1023900000440140004801404FF6FF7606EA05255B
:1023A0002A434DF6FF752B400D8906EA05352B4370
:1023B0004D8806EA05352B43FA4DA84202D0FA4D66
:1023C000A84208D14BF6FF752C408D894FF6FF7659
:1023D00006EA85152C4384808283CD88A0F840507E
:1023E000038470BD828B4FF2FF331A408283828B4D
:1023F0004FF6FF7303EA01231A4382837047F0B557
:102400000C461546002200210026078C4EF6FF7C64
:1024100007EA0C070784828B018C4FF6FF7707EAE7
:10242000043640F6FF473A404FF6FF7707EA0527A4
:102430003A434FF6FF7707EA03373A43D94FB8429A
:102440000ED0D94FB8420BD0B0F1804F08D0D74F43
:10245000B84205D0D64FB84202D0D64FB84206D1C6
:102460004DF6FF77394046F48057394305E047F68B
:10247000FF57394044F48057394382830184F0BDCB
:10248000828B4FF6F3731A408283828B0A438283D6
:102490007047F0B50C461546002200210026078C37
:1024A0004FF6FF6C07EA0C070784828B018C4FF60E
:1024B000FF7707EA04264FF60C773A404FF6FF778E
:1024C00007EA03172F433A43B64FB8420ED0B64F30
:1024D000B8420BD0B0F1804F08D0B44FB84205D00D
:1024E000B34FB84202D0B34FB84206D14FF6FF57B0
:1024F000394046F48077394305E04FF2FF573940C1
:1025000044F48077394382830184F0BD028B4FF21B
:10251000FF331A400283028B4FF6FF7303EA012355
:102520001A4302837047F0B50C461546002200217D
:102530000026078C4FF6EF7C07EA0C070784028B16
:10254000018C4FF6FF7707EA041640F6FF473A4042
:102550004FF6FF7707EA03373A434FF6FF7707EA6C
:1025600005273A438F4FB8420ED08F4FB8420BD059
:10257000B0F1804F08D08D4FB84205D08C4FB84293
:1025800002D08C4FB84206D14FF6DF77394046F083
:102590001007394305E04FF65F77394044F01007E4
:1025A000394302830184F0BD028B4FF6F3731A4066
:1025B0000283028B0A4302837047F0B50C4615462E
:1025C00000220021068C4FF6FE773E400684028BE7
:1025D000018C4FF60C7632407E1C06EA03162E4321
:1025E0003243704EB0420ED06F4EB0420BD0B0F1BD
:1025F000804F08D06D4EB04205D06D4EB04202D033
:102600006C4EB04206D14FF6FD76314044F00106E3
:10261000314305E04FF6F576314044F00106314391
:1026200002830184F0BD70B505460C465D488542C5
:102630000ED05D4885420BD0B5F1804F08D05B4885
:10264000854205D05A48854202D05A48854200D179
:1026500000E000BF208850B92389A28861882846FD
:10266000FFF7ABFFE1882846FFF79EFF25E02088B3
:1026700004280AD12389A28861882846FFF753FFDE
:10268000E1882846FFF742FF17E0208808280AD192
:102690002389A28861882846FFF7FBFEE188284647
:1026A000FFF7EEFE09E02389A28861882846FFF73C
:1026B000A6FEE1882846FFF795FE70BD2DE9F041A2
:1026C00005460C4600260127608808B9022600E06E
:1026D0000026A088012801D1022700E001272088D8
:1026E000A0B92389A28861882846FFF766FFE188A0
:1026F0002846FFF759FF23893A4631462846FFF717
:1027000012FFE1882846FFF701FF13E02389A28822
:1027100061882846FFF707FFE1882846FFF7F6FEA5
:1027200023893A4631462846FFF747FFE188284685
:10273000FFF73AFFBDE8F0810A884B881A438B887F
:102740001A43CB881A430B891A434B891A438B8946
:102750001A43A0F8442070474FF6FF718180002192
:102760000180C18041800172704700210180418059
:102770008180C180018141818181C18170470021B7
:1027800001804180012181800021C1800181704749
:102790000021018041808180C1800181418181814E
:1027A00070470000002C014000340140000400404C
:1027B00000080040000C004021B1028842F00102F4
:1027C000028004E002884FF6FE731A4002807047D0
:1027D00031B1B0F8442042F40042A0F8442005E0B2
:1027E000B0F84420C2F30E02A0F8442070471AB19A
:1027F00083890B43838102E083898B438381704704
:102800008182704741EA0203A0F8483070471AB14C
:1028100083890B43838102E083898B4383817047E3
:1028200001894FF6F8721140018170470A46002174
:1028300001894FF68F73194011430181704730B5FC
:1028400004460D4629462046FFF7F0FF208940F058
:102850000700208130BD2DE9F04104460D461646A3
:102860001F46602D06D13B46012231462046FFF728
:102870005AFE05E03B46012231462046FFF79DFE09
:1028800029462046FFF7D2FF208940F0070020812B
:10289000BDE8F08130B50C4600210189C9B24FF680
:1028A000FF7505EA0325154325432943018130BD02
:1028B0002DE9F04105460E4617469846002443464A
:1028C0003A4631462846FFF7E5FF2C894FF6F87067
:1028D000044044F007044FF68F70044044F0700445
:1028E0002C81BDE8F081F0B504460D4616461F4622
:1028F0003B46324629462046FFF7CCFF208940F46C
:1029000080402081F0BD0185828270470A46002107
:1029100001884FF68F731940114301807047F0B55D
:102920000C4615461E460021002200230189028B19
:10293000038C4FF6F877394021434FF6FC473A4075
:1029400040F201173A434FF6DD773B404FF6FF77F1
:1029500007EA06172F433B43018102830384F0BD3E
:102960000A460021018B4FF68F73194011430183F2
:1029700070470A460021018B48F6FF7319404FF655
:10298000FF7303EA02231943018370470A460021BB
:10299000818B4FF68F7319401143818370470A462C
:1029A0000021818B48F6FF7319404FF6FF7303EA4D
:1029B000022319438183704721B1028842F08002CB
:1029C000028004E002884FF67F731A40028070474D
:1029D00021B1828842F00402828004E082884FF6AE
:1029E000FB731A408280704721B1828842F008024E
:1029F000828004E082884FF6F7731A408280704725
:102A000021B1828842F00102828004E082884FF680
:102A1000FE731A40828070470A460021018B4FF6F0
:102A2000F77319401143018370470A460021018B57
:102A30004FF2FF7319404FF6FF7303EA0223194365
:102A4000018370470A460021818B4FF6F7731940C6
:102A50001143818370470A460021818B4FF2FF7337
:102A600019404FF6FF7303EA02231943818370472D
:102A70000A460021018B4FF6FB7319401143018375
:102A800070470A460021018B4FF6FF3319404FF67D
:102A9000FF7303EA02231943018370470A460021AA
:102AA000818B4FF6FB7319401143818370470A46AF
:102AB0000021818B4FF6FF3319404FF6FF7303EA75
:102AC00002231943818370470A460021018B4FF688
:102AD0007F7319401143018370470A460021018B1F
:102AE000C1F30E014FF6FF7303EA0223194301837A
:102AF00070470A460021818B4FF67F7319401143BE
:102B0000818370470A460021818BC1F30E014FF685
:102B1000FF7303EA02231943818370470A460021A9
:102B2000018C4FF6FD7319401143018470470A462A
:102B30000021018C4FF6F77319401143018470474F
:102B40000A460021018C4FF6DF7319404FF6FF73E0
:102B500003EA02131943018470470A460021018CDD
:102B60004FF67F7319404FF6FF7303EA02131943C0
:102B7000018470470A460021018C4FF6FF5319402B
:102B80004FF6FF7303EA02231943018470470A4694
:102B90000021018C4FF2FF7319404FF6FF7303EAD7
:102BA00002231943018470470A460021018C4DF627
:102BB000FF7319404FF6FF7303EA02331943018490
:102BC000704730B5002301248C40A3B2048C9C4391
:102BD0000484048C02FA01F5ADB22C43048430BDA8
:102BE00030B5002304248C40A3B2048C9C4304849D
:102BF000048C02FA01F5ADB22C43048430BD70B5EB
:102C00000346002000241846183001258D40ACB240
:102C10001D8CA5431D8409B1082909D100EB610071
:102C2000056825F0700505600568154305600EE030
:102C30000D1FC5F34E052844056825F4E0450560E1
:102C400005684FF6FF7606EA02263543056070BD3B
:102C500021B1028842F00202028004E002884FF6AD
:102C6000FD731A400280704721B1028842F00402CD
:102C7000028004E002884FF6FB731A40028070471E
:102C800021B1828842F08002828004E082884FF67F
:102C90007F731A408280704702884FF6F7731A409C
:102CA000028002880A430280704782884FF68F7341
:102CB0001A40828082880A438280704702894FF6D8
:102CC000F8731A40028102890A430281704702891F
:102CD0004FF67F731A40028102890A4302817047CE
:102CE000818470478185704781867047018770476E
:102CF00081877047A0F84010704702884FF6FF4365
:102D00001A40028002880A43028070470146888E7A
:102D100070470146088F70470146888F704701460B
:102D2000B1F8400070470146888C70470146088D15
:102D3000704702460020138A0B400BB1012000E0CF
:102D400000207047CA430282704730B50246002017
:102D500000230024158A05EA0103958905EA010488
:102D600013B10CB1012000E0002030BDCA43028243
:102D70007047000010B50446FA48844208D101218A
:102D80004015FEF79BFE00216015FEF797FE17E049
:102D9000F548844208D101210015FEF78FFE00217D
:102DA0002015FEF78BFE0BE0F048844208D101218C
:102DB000C803FEF783FE00214FF40040FEF77EFEBD
:102DC00010BD30B50246002000235068E84C20407A
:102DD0000D790C6844EA0524204350609068E54C66
:102DE0002040D1E902542C434D7944EA4504204364
:102DF0009060D06A20F470000C7C641EE4B223431F
:102E000040EA0350D06230BD002101600171417180
:102E10008160C16001210174704721B1826842F074
:102E20000102826003E0826822F001028260704742
:102E300021B1826842F48072826003E0826822F4E9
:102E400080728260704710B50023CBB21AB144681B
:102E50001C43446002E044689C43446010BD8168A8
:102E600041F0080181607047014600208A6802F045
:102E700008020AB1012000E000207047816841F09B
:102E8000040181607047014600208A6802F0040254
:102E90000AB1012000E00020704721B1826842F4AD
:102EA000A002826003E0826822F4A0028260704780
:102EB000014600208A6802F480020AB1012000E085
:102EC0000020704710B50A4600210023416821F414
:102ED0006041531E41EA4331416010BD21B1426857
:102EE00042F40062426003E0426822F40062426001
:102EF0007047F0B504460D4600200021092D11DD74
:102F0000E068A5F10A0606EB4607072606FA07F170
:102F10008843A5F10A0606EB460603FA06F10843C4
:102F2000E0600CE0206905EB4507072606FA07F18B
:102F3000884305EB450603FA06F108432061072A9A
:102F40000FDA606B561E06EB86071F2606FA07F19E
:102F50008843561E06EB860605FA06F108436063B1
:102F600022E00D2A0FDA206BD61F06EB86071F26FC
:102F700006FA07F18843D61F06EB860605FA06F126
:102F80000843206310E0E06AA2F10D0606EB860715
:102F90001F2606FA07F18843A2F10D0606EB860606
:102FA00005FA06F10843E062F0BD21B1826842F4FF
:102FB0008012826003E0826822F48012826070478F
:102FC0000146C86C80B2704766484C300068704754
:102FD00021B1426842F48062426003E0426822F418
:102FE00080624260704721B1426842F48052426080
:102FF00003E0426822F48052426070470A46002192
:10300000816821F4E04111438160704721B18268F9
:1030100042F40042826003E0826822F4004282604F
:10302000704721B1826842F40212826003E0826834
:1030300022F4021282607047014600208A6802F47E
:1030400000120AB1012000E000207047F0B50446EC
:103050001546002000220026092911DDE068A1F1B3
:103060000A0707EB470C072707FA0CF29043A1F178
:103070000A0707EB470703FA07F21043E0600CE08A
:10308000206901EB410C072707FA0CF2904301EB92
:10309000410703FA07F210432061A06BC0F3015609
:1030A000EF1C06F1010CA7EB0C0707EB870C1F27A1
:1030B00007FA0CF29043EF1C06F1010CA7EB0C078A
:1030C00007EB870701FA07F21043A063F0BD10B5C4
:1030D0000A4600210023816B21F44011531E41EA6E
:1030E0000351816310BD08B5002300930090009B3D
:1030F0000B440093009B1A6008BD08B502460020EF
:103100000090009201F12800009B18440090009864
:10311000006880B208BD0A4600214168164B19407C
:103120001143416070474162826270470A46002144
:10313000416821F01F0111434160704740B10949C6
:103140000831096841F40001064A0832116007E0BD
:1031500004490831096821F40001024A083211606B
:10316000704700000024014000280140003C01405D
:10317000FFFEF0FFFDF7F1FFFFFD3FFF02460020DD
:1031800013680B400BB1012000E000207047CA43D8
:103190000260704770B502460020002300240B1225
:1031A0005568CEB205EA060415681D4015B10CB18C
:1031B000012000E0002070BD00220A12D34303600A
:1031C0007047000008B501214420FEF75DFC012096
:1031D000ADF8000028208DF8030003208DF80200D0
:1031E00069462F48FEF794F91C20ADF800004820EE
:1031F0008DF8030003208DF8020069462948FEF788
:1032000087F908BD3EB504462748007801282CD12F
:103210002648006801280AD02548006838B12448AB
:10322000001F006818B12248001D0068E8B902A814
:1032300000210A230A46CDE9001008460AF02FF8BB
:1032400000201949087019480068012800D13EBDC6
:103250001748006808B90220F9E71548001F006800
:1032600008B90320F3E70420F1E71048006878B9B3
:103270000F48006801280BD10D48001F0068012885
:1032800006D10B48001D0068012801D106490870CD
:10329000012C02D10120044908700020D7E700006A
:1032A00000080140001801404000002000012142B8
:1032B0000C01234200B585B001214802FEF7E4FB72
:1032C0004FF40040FEF744FB0120FFF737FF0020DA
:1032D00000908DF804008DF805004FF460200290F6
:1032E0000020039001208DF8100069463F48FFF749
:1032F00068FD01213D48FFF790FD3C48FFF7AFFD19
:1033000000BF3A48FFF7B0FD0028FAD13748FFF771
:10331000B5FD00BF3548FFF7B6FD0028FAD1012101
:103320003248FFF7BAFD05B000BDFEB505460C46B4
:1033300000260723012229462C48FFF7DAFD002743
:1033400019E001212948FFF7A8FD00BF0221274805
:10335000FFF714FF0028F9D02448FFF731FE064498
:1033600002A8002105230A46CDE90010084609F00D
:1033700096FF781CC7B2A742E3DBB6FBF4F080B23D
:10338000FEBD2DE9F05F0A211020FFF7CEFF834636
:1033900058460BF044FF80460BF072FF06464FF094
:1033A0006632134B0BF051FE04460D4622462B4667
:1033B000104811490BF043FE8046104A104B0BF0A9
:1033C000B6FE064600220F4B0BF098FD04460D4654
:1033D00000220D4B204629460BF037FE06460BF027
:1033E00030FF82465046BDE8F09F000000240140B7
:1033F00066664A3FE17A14AE47E1F63F22FDF67574
:10340000E09C713F000039400000594008B501219F
:103410000820FEF739FB8020ADF8000014208DF85D
:10342000030003208DF8020069460848FEF770F893
:1034300008BD10B580210548FEF717F910BD10B57D
:1034400080210248FEF713F910BD0000000C014076
:1034500008B501218020FEF717FB4FF40060ADF89E
:10346000000003208DF8020004208DF80300694657
:103470004D48FEF74DF808BD08B501218020FEF744
:1034800003FB4FF40060ADF8000003208DF802004C
:1034900010208DF8030069464348FEF739F808BD4F
:1034A00010B5FFF7E9FF4FF400613F48FEF7DFF882
:1034B00044F6382000F0B7F84FF400613A48FEF7C0
:1034C000D4F81E2000F0AFF8FFF7C2FF10BD10B512
:1034D0004FF400613448FEF7AEF810BD10B500BFE0
:1034E0004FF400613048FEF7A6F80028F8D02820F5
:1034F00000F099F84FF400612B48FEF79CF8012882
:1035000009D100BF4FF400612748FEF794F8012865
:10351000F8D0012010BD0020FCE770B50024002584
:1035200008E04FF6FF7000EA4404FFF7D7FF0443BA
:10353000681C85B2082DF4DB204670BD70B50446CA
:103540000025FFF7ADFFFFF7C2FF58BB00BFFFF735
:10355000BEFF0028FBD000BFFFF7B9FF0128FBD05A
:10356000002504E0FFF7D9FF6055681C85B2052DE2
:10357000F8DB00BFFFF7ABFF0028FBD0FFF77CFFB5
:103580004FF400610848FEF770F82078617808442D
:10359000A1780844E1780844C6B22079B04201D04D
:1035A000012070BD0020FCE7001C01402DE9F04126
:1035B00006460D46681C0DF017F80746002403E088
:1035C000305D30303855641CAC42F9DB0020385592
:1035D000BDE8F0812DE9F04706460F4690464FF0D2
:1035E0000009CA463446002518E020783F2814D147
:1035F000C14510D1651C02E00AF1010A6D1C287852
:1036000010B128783F28F7D15246611C38460BF09C
:1036100053FCBDE8F08709F10109641C20780028FB
:10362000E3D100BFF5E7002106E00A2100BF0A1E32
:10363000A1F1010399B2FAD1021EA0F1010398B2DF
:10364000F3D17047002107E042F6E06100BF0A1E97
:10365000A1F1010399B2FAD1021EA0F1010398B2BF
:10366000F2D1704708B501210420FEF70DFA0420BD
:10367000ADF8000028208DF8030069460148FDF7E9
:1036800047FF08BD0008014030B589B005460C462B
:1036900001211020FEF7F8F901210220FEF701FABE
:1036A00001210846FEF7F0F94020ADF804000320A0
:1036B0008DF8060018208DF8070001A91748FDF7BE
:1036C00027FF01211648FDF7F4FFADF81C50ADF8B7
:1036D00018400020ADF81E00ADF81A0006A91148E8
:1036E000FEF70EFD6020ADF808000220ADF81000D6
:1036F0000120ADF80A0002A90A48FEF73EFD0821A4
:103700000848FFF789F901210648FFF755F901211B
:103710000448FFF751F809B030BD00000010014027
:10372000000C1A000004004000B585B00121C80358
:10373000FEF7AAF90121C803FEF7C0F900214FF4F2
:103740000040FEF7BBF93A48FFF714FB0020009059
:103750008DF804008DF805004FF4602002900020E1
:10376000039001208DF8100069463148FFF729FBCE
:1037700001212F48FFF751FB2D48FFF770FB00BFD9
:103780002B48FFF771FB0028FAD12948FFF776FB99
:1037900000BF2748FFF777FB0028FAD105B000BD2E
:1037A00010B504460723012221462148FFF7A1FB5B
:1037B00001211F48FFF771FB00BF02211C48FFF7E2
:1037C000DDFC0028F9D01A48FFF7FAFB10BD08B558
:1037D00001218020FEF758F94FF40070ADF8000089
:1037E00000208DF8030069461248FDF791FEFFF7AF
:1037F0009BFF08BD70B50024002508E00720FFF7F7
:10380000CFFF04440520FFF71DFF681CC5B2C82D7B
:10381000F4DBC820B4FBF0F4B4F57A6F01D94FF4AF
:103820007A642820B4FBF0F0C0F16400C0B270BD2F
:10383000003C0140001C014008B501211020FEF7AA
:1038400023F9BD20ADF8000010208DF803000320FF
:103850008DF8020069462F48FDF75AFE08BD012089
:103860002D49086000202D49C1F88C0101202A490A
:103870000831086070470020274908600120274967
:10388000C1F88C01244908310860704701202249A1
:1038900008602249C1F88C011F490831086070474F
:1038A00000201D4908601D49C1F88C011A490831E2
:1038B000086070470120184908390860002017493E
:1038C000C1F89401012014491431086070470020A8
:1038D00011490839086001201049C1F894010E49C6
:1038E00014310860704701200B49083908600B4902
:1038F000C1F8940108491431086070470020064956
:10390000083908600549C1F8940103491431086079
:10391000704700000010014088012242000022424E
:1039200010B504466FF00400FDF773FDE11704EBDA
:103930005171C1F3C7012B4A11701046007800EB9A
:103940004001C1EBC0104FF6FF7101EAC0002649EB
:10395000088010BD0146234A12784A434FF0E02305
:103960005A6100229A611A46126942F001021A61F4
:1039700000BF4FF0E022106900F001021AB100F41C
:103980008032002AF5D04FF0E022126922F00102C5
:103990004FF0E0231A6100229A6170470146124AF3
:1039A00012884A434FF0E0235A6100229A611A4676
:1039B000126942F001021A6100BF4FF0E022106963
:1039C00000F001021AB100F48032002AF5D04FF065
:1039D000E022126922F001024FF0E0231A61002276
:1039E0009A6170474200002044000020014600BF59
:1039F000704770B504460D46E1B23948FEF7E4F968
:103A000000BF80213648FEF74DFA0028F9D0204645
:103A100070BD10B586B00446012144F20400FEF7E3
:103A200033F84FF40070ADF8140003208DF8160041
:103A300018208DF8170005A92A48FDF769FD4FF4F5
:103A40008060ADF8140004208DF8170005A9254802
:103A5000FDF75EFD25208DF8000003208DF80100A4
:103A60008DF8020001208DF803006846FDF787FC01
:103A700001940020ADF80800ADF80A00ADF80C0084
:103A8000ADF810000C20ADF80E0001A91448FEF7A7
:103A9000A2F8012240F225511148FEF734F9012124
:103AA0000F48FEF724F906B010BD10B540F22551BD
:103AB0000B48FEF70DFA70B10948FEF789F9C4B258
:103AC00021460748FEF780F900BF40210448FEF771
:103AD000E9F90128F9D140210148FEF7F0F910BDBC
:103AE0000038014000080140704700B585B06846C5
:103AF000FDF75DFF019805B000BD10B50B480068EB
:103B000040F0807009490860002009494860084673
:103B1000006840F001000860FFF7E7FF0446204618
:103B200001F0A3FF10BD024840687047FCED00E0C3
:103B3000001000E00146412903DB5A2901DC012283
:103B400000E00022012A08D0612903DB7A2901DC88
:103B5000012200E00022012A01D1012200E000221E
:103B6000104670470146412903DB5A2901DC012236
:103B700000E00022012A08D0612903DB7A2901DC58
:103B8000012200E00022012A01D1012200E00022EE
:103B9000012A08D0302903DB392901DC012200E0A9
:103BA0000022012A01D1012200E0002210467047C4
:103BB0000146612903DB7A2901DC012200E00022B1
:103BC000104670470146412903DB5A2901DC0122D6
:103BD00000E00022104670470146302903DB3929F6
:103BE00001DC012200E00022104670470146302926
:103BF00003DB372901DC012200E000221046704778
:103C00000146302901DB392907DD412901DB46293D
:103C100003DD612903DB662901DC012200E00022CB
:103C2000104670470146202901D0092901D10122FF
:103C300000E00022104670470146202909D00D29D6
:103C400007D00A2905D00C2903D0092901D00B2956
:103C500001D1012200E000221046704701462029D0
:103C600003DB7E2901DC012200E0002210467047C0
:103C70000146212903DB7E2901DC012200E000222C
:103C8000104670470146202903DB7E2901DC012212
:103C900000E00022012A35D1202909D00D2907D0C2
:103CA0000A2905D00C2903D0092901D00B2901D1FB
:103CB000012200E000222ABB412903DB5A2901DC52
:103CC000012200E00022012A08D0612903DB7A29C1
:103CD00001DC012200E00022012A01D1012200E0E2
:103CE0000022012A08D0302903DB392901DC012216
:103CF00000E00022012A01D1012200E000220AB9DD
:103D0000012200E000221046704701464AB2002A14
:103D100001DB1F2901DD7F2901D1012200E0002202
:103D2000104670470146412903DB5A2901DC012274
:103D300000E00022012A02D101F1200200E00A463F
:103D4000D0B270470146612903DB7A2901DC0122E8
:103D500000E00022012A02D1A1F1200200E00A467F
:103D6000D0B27047F0B504460B462046FFF7EAFF95
:103D700005461846FFF7E6FF0646B54201D1012089
:103D800000E0002007463846F0BD0000F748F8493B
:103D900001600146416000218160C16001614161B3
:103DA0008161C16101620163C1624162F149816364
:103DB000C1634FF4D841016441640146EE4A116089
:103DC00070472DE9F04103460C4617460FB9BDE890
:103DD000F08103B9FBE70025002202E02D02254314
:103DE000521C042AFAD3384603F0030C1946BCF1DE
:103DF000000F08D0624603E001F8014B401E521C40
:103E000008B1042AF8D30E4601E020C6001F04289A
:103E1000FBD2314602E001F8014B401E0028FAD1E6
:103E200000BFD4E730B505460C462246002128469F
:103E3000FFF7C7FF30BD2DE9F04F85B00746884634
:103E40009146B9F1000F02D105B0BDE8F08F07B976
:103E5000FAE7B8F1000F00D1F6E746463D46AE421C
:103E600005D94A464146384601F0EAFBECE74C46A4
:103E70003819451E08EB0400461EA81B0490049840
:103E8000042834D305F00300029006F003010191E9
:103E9000DDE90110884201D1012000E000200090FE
:103EA0000098012823D10298032810D0029840B22C
:103EB000039008E016F8010905F80109641E03984B
:103EC000401E40B2039014B103980028F2DAA5F125
:103ED000030AA6F1030B04E05BF804094AF804099D
:103EE000241F042CF8D20AF103050BF1030604E0A9
:103EF00016F8010905F80109641E002CF8D100BF6D
:103F0000A2E72DE9F84F80468946154615B90120EC
:103F1000BDE8F88FB8F1000F01D10020F8E7B9F142
:103F2000000F01D10020F3E70124294608EB050228
:103F300009EB050302F0030C03F0030BDC4501D190
:103F4000012000E0002000900098012829D1BCF158
:103F5000000F12D0E2460AE0521E5B1E107893F862
:103F600000E0704500D00024491EAAF1010A012C8E
:103F700003D111B1BAF1000FEED1012C11D11646C7
:103F80001F4608E0361F3F1F3068D7F800E0704535
:103F900000D00024091F012C01D10429F2D232469D
:103FA0003B4608E0521E5B1E107893F800E0704517
:103FB00000D00024491E012C01D10029F2D1204655
:103FC000A6E7F0B503460D461646DA6BB2FBF6F0EF
:103FD00006FB102CBCF1000F02D0A6EB0C0400E095
:103FE00000246119586C884201D20020F0BDA14222
:103FF00001D3A94201D20020F8E75718974201D215
:104000000020F3E72244DF63586C401A58641046DE
:10401000ECE72DE9F04F81468C461C46B9FBF4F0E5
:1040200004FB109BBBF1000F02D0A4EB0B0600E0D9
:104030000026B2FBF4F004FB102BBBF1000F02D002
:10404000A4EB0B0300E00023D018ACF1010E00FB41
:104050000E60871806EB0208B04501D3904502D2E6
:104060000020BDE8F08FBCF1010F22D9D5189D4288
:1040700001D3954201D20020F3E7ACF1010000FB2F
:1040800005F1A94203D3994201D3914201D2002004
:10409000E7E701EB020A8A4501D3924501D20020ED
:1040A000DFE7474503D38F4201D3574501D20020B4
:1040B000D7E73846D5E72DE9FE4F0746884615462F
:1040C0001C46002000901CB900BF01F05BFC00BF43
:1040D0000DB901AD00BF002028602FB942F2747005
:1040E00020800020BDE8FE8FB8F1000F04D142F21D
:1040F000757020800020F5E7DFF8709000BF00BFEA
:1041000001F0D0FD009000BF01F0C9FB00BFD9F85D
:104110003C000290D9F844B043463A460121029847
:10412000FFF777FF064676B900BF01F099FB00BFA5
:10413000009801F0BBFD00BF00BF2F6042F2E370AA
:1041400020800020CEE75E4518D900BF01F088FB33
:1041500000BF009801F0AAFD00BF00BFA6EB0B0056
:10416000286042F2E27020800020BBE7FC42002081
:1041700048454150444300204C0000204246394607
:104180004846FFF71EFF8246BAF1000F0ED100BF6E
:1041900001F066FB00BF009801F088FD00BF00BF82
:1041A0002E6042F2E270208000209BE700BF01F009
:1041B00057FB00BF009801F079FD00BF00BF42F23D
:1041C0001070208050468DE72DE9FC5F06460D46B5
:1041D0001446002000901CB900BF01F0D3FB00BFC3
:1041E0002DB942F2757020800020BDE8FC9FB5F526
:1041F000805F04D942F2757020800020F5E726B96F
:1042000042F2117020800020EFE700BF00BF01F0F4
:1042100049FD009000BF01F042FB00BFFC4930683F
:10422000084440B1FB49084418B1FB49084408B9A7
:1042300000BF0EE000BF00BF01F012FB00BF0098FE
:1042400001F034FD00BF00BF42F2887020800020E2
:10425000CBE700BFD6F80490D9F8380008B148463B
:1042600000E0EE488246DAF84470DAF83CB000BF6D
:1042700001F0F6FA00BF009801F018FD00BF00BF82
:10428000012D0DD9BBFBF5F005FB10B8B8F1000FFF
:1042900002D0A5EB080000E00020019001983F1A31
:1042A00042F21070208038469FE770B504460D46F4
:1042B0002A462146D948FFF787FF0646304670BD9B
:1042C00070B504460D461DB900BF01F05BFB00BF91
:1042D0001CB942F21170288070BDCD484042206068
:1042E00000206060A060E06020616061A061E0612A
:1042F0002062A06260632063E0626062A063E063AA
:104300002064606442F21070288000BFE4E72DE969
:10431000FF4F91B00446DDE92095002000901DB9C3
:1043200000BF01F02FFB00BFB9F1000F02D10DF16A
:10433000100900BF0020C9F8000029462046FFF7F9
:10434000BFFF288842F21071884202D015B0BDE844
:10435000F08F129828B1139818B942F27E70288015
:10436000F4E7149818B942F292702880EEE71E988C
:1043700018B942F293702880E8E71F9818B942F202
:1043800094702880E2E7A648006818B942F2E77006
:104390002880DBE7A14810904FF0000A00BF00BF63
:1043A00001F080FC009000BF01F079FA00BF129884
:1043B000002863D1109E109E0E96109E3746109EC8
:1043C000F06B0B9004231A4614990B98FFF721FE0B
:1043D0000390039860B900BF01F042FA00BF009853
:1043E00001F064FC00BF00BF42F2E3702880ADE73B
:1043F00003990B9808440A90DDE91E2314990A9842
:10440000FFF707FE8346BBF1000F0CD100BF01F0A0
:1044100027FA00BF009801F049FC00BF00BF42F23C
:10442000E370288092E7039800EB0B0A039882451B
:1044300001D3DA450CD200BF01F012FA00BF009898
:1044400001F034FC00BF00BF42F2E37028807DE73A
:104450001098D0F84480C2457ED900BF01F000FA20
:1044600000BF009801F022FC00BF00BFAAEB0800CB
:10447000C9F8000042F2E270288067E712980990BC
:10448000DDE912010844401E0890DDE90810814270
:104490000CD200BF01F0E4F900BF009801F006FC67
:1044A00000BF00BF42F2977028804FE7002600202F
:1044B0000E905B4807683CE0B96B1298814205D1C9
:1044C000396C1398814201D13E4634E0B86B0790B5
:1044D000396CB86B0844401E0690DDE90701814243
:1044E00000D228E007990998884203D8DDE907102F
:1044F00088420FD207990998884203D306990898F1
:10450000884207D906990998884210D806990898D0
:1045100088420CD300BF01F0A3F900BF009801F05E
:10452000C5FB00BF00BF42F27F7028800EE70E97E8
:10453000FF68002FC0D100BF46B926461298A0637D
:104540001298E06313982064139860641098C06B0D
:104550000B9004231A4600E064E014990B98FFF7CF
:1045600058FD0390039860B900BF01F079F900BFCE
:10457000009801F09BFB00BF00BF42F2E37028806F
:10458000E4E61098D0F844800398404511D900BF64
:1045900001F066F900BF009801F088FB00BF00BF82
:1045A0000398A0EB0800C9F8000042F2E2702880EE
:1045B000CCE6F06B0A90DDE91E2314990A98FFF708
:1045C00028FD8346BBF1000F0CD100BF01F048F974
:1045D00000BF009801F06AFB00BF00BF42F2D97033
:1045E0002880B3E6D6F84480C3451BD900BF01F04C
:1045F00037F900BF009801F059FB00BF00BFABEBDB
:104600000800C9F8000042F2D87028809EE6000039
:10461000B2B0B1BAFEFFFEF8080A0EFCFC42002060
:104620004C000020149880000290042202991098F7
:10463000FFF7C7FC0D900D9838BB1098D0F8448058
:1046400000BF01F00DF900BF009801F02FFB00BF83
:1046500000BF129848B9C24504D9AAEB0800C9F8AE
:1046600000000EE0C9F800A00BE00298404505D913
:104670000298A0EB0800C9F8000002E00298C9F80F
:10468000000042F2E270288060E60020019034E0F1
:104690003046DDE91E12FFF794FC0C900C9820BB0D
:1046A000F06B0A90D6F8448000BF01F0D9F800BF43
:1046B000009801F0FBFA00BF00BF01991498401A5E
:1046C0000590DDE91E2305990A98FFF7A2FC8246B2
:1046D000C24504D9AAEB0800C9F8000001E0C9F8F6
:1046E00000A042F2D870288030E6019ADDE90C0182
:1046F00041F822000198401C0190149901988842C9
:10470000C6D3A6420CD10E98A060E7600E9810B1F7
:104710000E98C46001E0FB4804605FB1BC6009E032
:1047200070690F9026610F98606174610F9808B1ED
:104730000F980461F448206066600A98A0610A98A6
:104740005844401EE0610D982062C4F828B01F98BC
:1047500060631E9820631498E0621498606200BF42
:1047600001F07EF800BF009801F0A0FA00BF00BF82
:1047700042F21070288000BFE8E52DE9F0410546BF
:104780000C4600271CB900BF01F0FCF800BF2DB992
:1047900042F2117020800020BDE8F08100BF00BF10
:1047A00001F080FA074600BF01F079F800BFD74951
:1047B0002868084440B1D649084418B1D54908448E
:1047C00008B902E00FE000BF00BF00BF01F048F8E9
:1047D00000BF384601F06AFA00BF00BF42F288709D
:1047E00020800020D8E700BF6E6A00BF01F038F8D3
:1047F00000BF384601F05AFA00BF00BF42F2107005
:1048000020803046C8E72DE9F04104460E461546A3
:104810004FF000081DB900BF01F0B4F800BF2CB97B
:1048200042F2117028800020BDE8F08126B942F2E2
:10483000937028800020F7E700BF00BF01F032FA34
:10484000804600BF01F02BF800BFAF4920688842C6
:104850000DD000BF01F004F800BF404601F026FA79
:1048600000BF00BF42F2887028800020DCE7206B88
:10487000B0420DD200BF00F0F3FF00BF404601F090
:1048800015FA00BF00BF42F2937028800020CBE7EA
:10489000606A68B900BF00F0E3FF00BF404601F066
:1048A00005FA00BF00BF42F2DE7028800020BBE79F
:1048B000E16A606A88420DD900BF00F0D1FF00BFF5
:1048C000404601F0F3F900BF00BF42F29570288026
:1048D0000020A9E7606A401E6062D4E9080150F830
:1048E000217000BF00F0BCFF00BF404601F0DEF9C0
:1048F00000BF00BF42F210702880384694E72DE9CF
:10490000F04704460F4615464FF000091DB900BF99
:1049100001F038F800BF2CB942F211702880002055
:10492000BDE8F08700BF00BF01F0BCF9814600BFC1
:1049300000F0B5FF00BF7449206888420DD000BF69
:1049400000F08EFF00BF484601F0B0F900BF00BF85
:1049500042F2887028800020E2E7E16A606A8842BB
:104960000DD300BF00F07CFF00BF484601F09EF968
:1049700000BF00BF42F2957028800020D0E7E06AB7
:10498000C01B461EE06AB0420DD800BF00F068FFB1
:1049900000BF484601F08AF900BF00BF42F295709F
:1049A00028800020BCE7606AB0420DD900BF00F04B
:1049B00057FF00BF484601F079F900BF00BF42F23F
:1049C000957028800020ABE7206A50F8268000BF51
:1049D00000F046FF00BF484601F068F900BF00BF85
:1049E00042F21070288040469AE72DE9F04F0246C7
:1049F0000C469569D2F81CB0AC4201D35C4502D993
:104A00000020BDE8F08F536BB5FBF3F003FB1051B2
:104A100011B1A3EB010C01E04FF0000C176BB7FBD9
:104A2000F3F003FB107109B15E1A00E0002605EBFC
:104A30000C08A4EB080A07EB0609BAFBF9F009FB1E
:104A400010A008B9012000E0002086467046D8E793
:104A50002DE9F04704460F4615464FF0000A1DB9F0
:104A600000BF00F08FFF00BF24B942F21170288010
:104A7000BDE8F0871FB942F211702880F8E700BF47
:104A800000BF01F00FF9824600BF00F008FF00BF31
:104A90001D49206888420CD000BF00F0E1FE00BF35
:104AA000504601F003F900BF00BF42F28870288031
:104AB000DEE739462046FFF798FF8046B8F1010F40
:104AC0000CD000BF00F0CCFE00BF504601F0EEF865
:104AD00000BF00BF42F297702880C9E700261CE0A3
:104AE000206A50F82600B84216D100BF00F0B8FE88
:104AF00000BF504601F0DAF800BF00BF42F29870E4
:104B00002880B5E74C000020504F4F4CB2B0B1BAEE
:104B1000FEFFFEF8080A0EFC761C606AB042DFD881
:104B2000E16A606A88420CD300BF00F099FE00BFC2
:104B3000504601F0BBF800BF00BF42F2DD70288094
:104B400096E74FF00008666A08E0206A50F8269061
:104B5000B94502D14FF0010803E0761CE06AB0428B
:104B6000F3D800BFB8F1010F07D1D4E9080150F81C
:104B70002100216A41F826000CE000BF00F070FE21
:104B800000BF504601F092F800BF00BF42F28870AB
:104B900028806DE7D4E9080140F82170606A401C64
:104BA000606200BF00F05CFE00BF504601F07EF87E
:104BB00000BF00BF42F21070288000BF58E72DE907
:104BC000F84F04460F461546002000904FF0FF3B7B
:104BD0001DB900BF00F0D6FE00BF2CB942F2117023
:104BE00028805846BDE8F88F27B942F21170288016
:104BF0005846F7E700BF00BF01F054F8009000BF2F
:104C000000F04DFE00BF4349206888420DD000BF30
:104C100000F026FE00BF009801F048F800BF00BF7A
:104C200042F2887028805846DCE739462046FFF774
:104C3000DCFE8046B8F1010F0DD000BF00F010FE81
:104C400000BF009801F032F800BF00BF42F2977039
:104C500028805846C6E7002613E0206A50F8260050
:104C6000B8420DD100BF00F0FBFD00BF009801F07D
:104C70001DF800BF00BF42F2987028805846B1E787
:104C8000761C606AB042E8D8E16A606A88420DD357
:104C900000BF00F0E5FD00BF009801F007F800BF7D
:104CA00000BF42F2DD70288058469BE74FF00008B5
:104CB000666A08E0206A50F82690B94502D14FF0A4
:104CC000010803E0761CE06AB042F3D800BFB8F1F7
:104CD000010F11D1E06A401EA0EB060A00BF00F0F0
:104CE000BFFD00BF009800F0E1FF00BF00BF42F22F
:104CF00010702880504675E700BF00F0B1FD00BF7E
:104D0000009800F0D3FF00BF00BF42F288702880F7
:104D1000584667E7504F4F4C10B502460B461146B8
:104D2000002001E0491C401C19B10C780CB19842DC
:104D3000F8D310BD30B504464FF0FF312046FFF7E1
:104D4000EBFF0546284630BD70B504460D461646B5
:104D50000CB9002070BD0DB90020FBE721462A46A2
:104D6000002304E010780870491C521C5B1C21B120
:104D70001AB1107808B1B342F4D301B10AB90020D6
:104D8000E8E7B34201D2002008702046E2E770B5A0
:104D900004460D464FF0FF3229462046FFF7D4FF68
:104DA0000646304670BD70B503460C4615460BB935
:104DB000002070BD0CB90020FBE70DB91846F8E7DC
:104DC000194600E0491C11B108780028FAD109B948
:104DD0000020EEE72246002604E010780870491C07
:104DE000521C761C21B11AB1107808B1AE42F4D32E
:104DF00001B10AB90020DCE7002008701846D8E7A6
:104E000070B504460D464FF0FF3229462046FFF7A5
:104E1000CAFF0646304670BD2DE9F04305460B46F5
:104E20009446BCF1000F02D10020BDE8F08335B9F3
:104E30000BB90020F9E7187842421046F5E713B99C
:104E40002A781046F1E729461C460F4626467F1C65
:104E5000761C4FF0000805E0491C641C7F1C761C82
:104E600008F10108087894F80090484505D10878C1
:104E700018B117B10EB1E045EED3E04501D10020E5
:104E8000D3E7087894F80090484505D0087894F85E
:104E90000090A0EB09020BE0087808B9002207E0B7
:104EA0002FB90EB9002203E03078424200E03A7890
:104EB0001046BAE770B504460D464FF0FF3229465A
:104EC0002046FFF7A9FF0646304670BD2DE9F74F93
:104ED00082B080460E46049818B9002005B0BDE89F
:104EE000F08FB8F1000F09D10EB90020F6E7307845
:104EF000FEF718FF07467C422046EFE73EB998F8D8
:104F00000000FEF70FFF05462C462046E6E7C146A7
:104F1000B246C846C3465646CDF804A0D8460BF163
:104F2000010B019E701C0190C84699F80000FEF725
:104F3000F9FE054656469AF80000FEF7F3FE0746CE
:104F40000020009015E009F101090AF1010A0BF1B6
:104F5000010B0198401C01900098401C009099F8AA
:104F60000000FEF7DFFE05469AF80000FEF7DAFEC5
:104F70000746BD420BD199F8000040B1BBF1000FCC
:104F800005D0019818B1049900988842DBD30499A0
:104F90000098884201D10020A0E7BD4201D0EC1B5F
:104FA00016E00DB9002413E0BBF1000F0AD10198FF
:104FB00008B900240CE001990878FEF7B3FE074613
:104FC0007C4205E09BF80000FEF7ACFE05462C464F
:104FD000204683E770B504460D464FF0FF32294660
:104FE0002046FFF773FF0646304670BD30B50446D5
:104FF0000B4615460CB9002030BD0BB90020FBE76D
:105000002146002201E0491C521C31B1087820B130
:105010000878A84201D09A42F5D309B90020EBE7FD
:105020009A4201D30020E7E70878A84201D0002087
:10503000E2E70846E0E770B505460C4622464FF029
:10504000FF312846FFF7D2FF0646304670BD2DE9F6
:10505000F04305460E46174615B90020BDE8F0831B
:105060000EB90020FAE72C46A6F101094946204670
:10507000FFF752FE804644440CB90020EEE700E002
:10508000641EAC4202D02078B842F9D12078B842F0
:1050900001D00020E2E72046E0E770B505460C4667
:1050A00022464FF0FF312846FFF7D1FF0646304633
:1050B00070BD70B504460D4616460CB9002070BD93
:1050C0000BB90020FBE721461A4605E00878A84204
:1050D00000D10E70491C521E19B1087808B1002A7F
:1050E000F4D12046EBE7F0B504460D4616464FF0E6
:1050F000FF33324629462046FFF7DBFF0746384696
:10510000F0BD2DE9FF4F06460F4615461EB900209B
:1051100004B0BDE8F08F0FB90020F9E70DB9002009
:10512000F6E7681C00B101E04FF0FF30039029461C
:105130003046FFF7F1FD804638460399FFF7ECFD56
:1051400004460CB93046E3E7444501D90020DFE7C7
:1051500006EB080BBBF1000F01D10020D8E707EBED
:10516000040BBBF1000F01D10020D1E7A8EB040034
:1051700002904FF000090020019000BF06EB0900EB
:105180000090224639460098FFF746FE8246BAF163
:10519000000F01D1012000E00020019009F1010978
:1051A000019810B902988145E8D9BAF1000F01D0F1
:1051B0000020ADE70098ABE770B504460D464FF010
:1051C000FF3229462046FFF79CFF0646304670BD59
:1051D0002DE9FF4F8DB00F4615461A9E1D9818B940
:1051E000002011B0BDE8F08F00200390012F01DAFC
:1051F00001200390022D01D3242D01D90120039019
:1052000096B33046FEF72AFD02900298012802D09C
:105210000120039028E0302E26D0A6F13000C0B245
:1052200007901B98012804D0A6F14100C0B2069057
:1052300003E0A6F16100C0B206900A2D02D80798DB
:10524000A84209DB0A2D09D907980A2804D3A5F139
:105250000A000699884201D9012000E0002005904B
:105260000598012800D103901D9C0398002846D181
:10527000DDF834A0DDF834A0CDF830A001200B908B
:1052800007E00B98401CC0B20B900C98B0FBF5F0F7
:105290000C900C98A842F4D21098012800D100E09C
:1052A000002009900B9909980844B84225DC002099
:1052B00001900B98B84201DA0B9800E038460A904A
:1052C0003EB1B8460A98391A0998081AC0B208902F
:1052D00006E0DDE90910084400F0FF08002008900E
:1052E0000898002806DD302E01D1012000E00020C2
:1052F000049004E00020049001E001200390039852
:1053000000B1B84644441C9808B100202070641EC7
:105310004FF0000941E00398A8BBBAF1000F02D199
:10532000B9F1000F1CD1BAFBF5F005FB10A000F09D
:10533000FF0BBBF10A0F04D20BF1300004F8010996
:105340000BE01B98012804D00BF1370004F8010989
:1053500003E00BF1570004F80109BAFBF5FA1AE073
:105360001098012810D1049808B9019828B1049820
:1053700050B1A8F10100484506D12D2004F80109DB
:105380000120019007E003E02EB104F8016902E07A
:105390003F2004F8010909F10109C145BBD3039875
:1053A00008B100201DE71D981BE72DE9FF5F0546AA
:1053B0000E4617461C46DDE90F9ADDF838800023BB
:1053C0003A46314628468DE81007FFF701FF83462D
:1053D000584604B0BDE8F09F2DE9FF4F85B0044664
:1053E00089461F46DDE913AB002C02DA654201262F
:1053F00001E02546002612983346CDE902ABCDE9FF
:10540000007049462846079AFFF7E2FE804640466C
:1054100009B0BDE8F08F2DE9FF4F8BB006468946F5
:105420001546B9F1000F02D10DF1240900BFC9F8EA
:105430000060189810B907A8189000BF00211898AC
:1054400001701EB900200FB0BDE8F08F012D01D012
:10545000242D01D90020F6E734462078FEF7ECFB36
:10546000039004E0641C2078FEF7E6FB03900398A9
:105470000128F7D020782B2802D02D280BD103E06B
:10548000641C4FF0000B09E00E98012800D1641C49
:105490004FF0010B02E04FF0000B00BF00BF0A9479
:1054A00025B1082D1CD0102D36D11EE020783028D3
:1054B00014D1641C2078582802D078280BD100BF62
:1054C000102567783846FEF79BFB8246BAF1010F3C
:1054D00000D1641C01E0082500BF00E00A251CE0A3
:1054E0002078302800D1641C17E02078302812D1B1
:1054F000641C2078582802D078280AD100BF677829
:105500003846FEF77DFB8246BAF1010F00D1641CDC
:1055100000E000BF00BF00E000BF00BF4FF0000888
:1055200000200290019040E027783846FEF71AFBF1
:1055300005900598012836D13846FEF74DFB0690B8
:105540000698012804D1A7F13000C0B208900FE0FE
:105550003846FEF72DFB04900498012804D1A7F1EA
:105560005700C0B2089003E0A7F13700C0B208901E
:105570000898A84214DA029880B9304850F82500FB
:10558000404509D308FB05F80898804408988045F1
:1055900004D20120029001E001200290641C04E08A
:1055A0000120019001E00120019001980028BBD06A
:1055B0000298012801D14FF0FF380A98844202D0A6
:1055C000C9F8004001E0C9F80060189880F800B000
:1055D000404638E7F8B504460D4616460020034617
:1055E0003246294600902046FFF715FF0746384609
:1055F000F8BD2DE9FC4105460E46174601A80123DA
:105600003A46314600902846FFF705FF04469DF8CC
:10561000040040B9B4F1004F02D36FF0004000E045
:105620002046804607E0B4F1004F02D34FF000401F
:1056300000E0604280464046BDE8FC816806010803
:10564000002800D17047002900D17047002A00D1FE
:1056500070472DE9F81F00F0030301F00304A34293
:1056600011D1C3F1040303F00303012B1DD3012A5D
:1056700000D2F2E011F8014B00F8014BA3F1010355
:10568000A2F10102F1E700F0010301F00104A342DD
:1056900000D094E0012B44D311F8014B00F8014BEA
:1056A000A3F10103A2F10102F4E7B2F5B47F26D31E
:1056B000B1E8F81FA0E8F81FB1E8F81FA0E8F81F4C
:1056C000B1E8F81FA0E8F81FB1E8F81FA0E8F81F3C
:1056D000B1E8F81FA0E8F81FB1E8F81FA0E8F81F2C
:1056E000B1E8F81FA0E8F81FB1E8F81FA0E8F81F1C
:1056F000B1E8F81FA0E8F81FA2F5B472D5E7282A90
:1057000006D3B1E8F81FA0E8F81FA2F12802F6E7D7
:10571000042A06D351F8043B40F8043BA2F10402EA
:10572000F6E7202A42D331F8023B20F8023B31F859
:10573000023B20F8023B31F8023B20F8023B31F8F3
:10574000023B20F8023B31F8023B20F8023B31F8E3
:10575000023B20F8023B31F8023B20F8023B31F8D3
:10576000023B20F8023B31F8023B20F8023B31F8C3
:10577000023B20F8023B31F8023B20F8023B31F8B3
:10578000023B20F8023B31F8023B20F8023B31F8A3
:10579000023B20F8023B31F8023B20F8023B31F893
:1057A000023B20F8023BA2F12002BAE7022A06D30C
:1057B00031F8023B20F8023BA2F10202F6E7102A80
:1057C00042D311F8013B00F8013B11F8013B00F80E
:1057D000013B11F8013B00F8013B11F8013B00F8D7
:1057E000013B11F8013B00F8013B11F8013B00F8C7
:1057F000013B11F8013B00F8013B11F8013B00F8B7
:10580000013B11F8013B00F8013B11F8013B00F8A6
:10581000013B11F8013B00F8013B11F8013B00F896
:10582000013B11F8013B00F8013B11F8013B00F886
:10583000013B11F8013B00F8013B11F8013B00F876
:10584000013BA2F11002BAE7012A06D311F8013B8D
:1058500000F8013BA2F10102F6E7BDE8F81F70472E
:1058600010B5FB480088401EF949088008460088AA
:10587000A0B9FEF758F9F749086008460068F649EC
:105880000968441AF5480068A04201D2F348046050
:10589000F3480068A04201D2F148046010BD10B581
:1058A000F0480088401CEF490880E948008818B992
:1058B000FEF739F9E8490860E5480088401CE449EA
:1058C000088010BD10B5002400BF00BF00F0EAF949
:1058D000044600BFFFF7E3FF00BF1021E248FEF7D8
:1058E000A1FA00BFFFF7BCFF00BF204600F0DEF9C1
:1058F00000BF00BF10BD10B5FFF7E4FF10BD70B5CD
:1059000000260020D7490880D1490880D249086084
:10591000D0490860D1490860D1490860D34908607E
:10592000002400BF00F0BEF9064600BF00250BE0D2
:105930000020CA490860FFF7B2FFFFF791FFC74890
:1059400000680444681C85B2002DF1D0C74804608B
:105950000020C2490860C249086000BF304600F01C
:10596000A5F900BF70BD10B50020C1490860FEF761
:10597000C4F810BD10B5FFF7F6FFFFF7C0FFFFF743
:10598000BAFF10BD00BFFEE770B505460C46002605
:1059900014B900BFFFF7F6FF15B90A20208070BDCB
:1059A00000BF00BF00F07EF9064600BFFFF777FF9B
:1059B00000BF1022AC492846FFF7C6F900BFFFF729
:1059C0004FFF00BF304600F071F900BF00BF00205C
:1059D000208000BFE3E72DE9F04105460C46002793
:1059E00014B900BFFFF7CEFF1DB90A202080BDE823
:1059F000F08110212846FFF78FF90646102E19D2A4
:105A000000BF00BF00F04EF9074600BFFFF747FF99
:105A100000BF102229469448FFF796F900BFFFF710
:105A20001FFF00BF384600F041F900BF00BF002053
:105A3000208002E04FF47A70208000BFD7E710B5D5
:105A4000FEF771F80446204610BD704700B50146C8
:105A500011B900BFFFF796FF854A106808B1002210
:105A600001E04FF4FA620A8000BD81490860704786
:105A7000014608467D4A1268904203D97B4A126863
:105A8000801A00E00020704770B5002500BF00F0CC
:105A900009F9054600BF7148046800BF284600F0B8
:105AA00005F900BF2046FFF7E3FF0646304670BD0C
:105AB00070B50025FFF7E8FF044600BF00F0F2F8DC
:105AC000054600BF00206549086000BF284600F079
:105AD000EDF800BF204670BD70B5002500BF00F096
