:03000000020139C1
:0C013900787FE4F6D8FD7581200201807B
:1001C50041542B434D47463D310D0A0041542B43C5
:1001D5005343533D2255435332220D0A0041542BBC
:1001E50043534D503D31372C302C322C32350D0ACE
:1001F5000041542B434D47533D00313530343633A0
:100205003937373637003842463736434538363181
:100215003046464630313637303934454241384626
:100225004442353136353632413538423636383343
:0B023500303335364634464630310089
:0E03500002080000C103C101C105C100C104C3
:090300007BFF12033D7FE87E0340
:10030900D3EF9400EE940040147D6E7C00ED1D70D7
:0D031900011CED4C70F7EF1F70E61E80E335
:0103260022B4
:10032700758920758DFD758BFDD28EC29FD29EC2B9
:060337009CC2ACD2AF2213
:08036A008F993099FDC2992220
:10033D00120240FF600C12036A740129F9E43AFAC3
:03034D0080EE221D
:100003002003357F327E001203090509E5097002DA
:100013000508AE08FF7C007D0A120259ED4C700200
:10002300B2A3C3E5099490E5089401406DE4F50893
:10003300F509D201C2A3805E7F327E001203090557
:1000430009E50970020508AE08FF7C007D0A12026B
:1000530059ED4C702FB2A330022A200608D2068530
:10006300080A85090BB284E50B2464FFE4350AFE14
:10007300C3E5099FE5089E400BD284C206C202E491
:10008300F50AF50BC3E50994B0E5089404400BC2E7
:0B009300A3E4F508F509C205D2002225
:1002AE0020B2162001137F057E0012030920B2062C
:1002BE00C2A3C203D20530B2FD30050312000320E3
:1002CE00B31B7F057E0012030920B30ED284C20237
:1002DE00C201C203C205D2A0D2A330B3FD20B41115
:1002EE007F057E0012030920B404D207D20230B477
:0202FE00FD22DF
:10009E0020A405300102D20220A406300103200064
:1000AE0006200703020138C2A0D2847A0179C51254
:1000BE0003007A0179D11203027A0179E212030266
:1000CE007A0179F612033D7F2212036AE4FE7F3035
:1000DE0012036A12036A7F3312036AEE9001FF93D2
:1000EE00FF12036A0EBE0BE67F2212036A7F0D1209
:1000FE00036A7F0A12036A1203057A02790B12034E
:10010E00007F1A12036A200708C200D205D20280AD
:10011E001330071030050DE4F508F509D201C2A31E
:0A012E00C205D200D2A0C207D2031E
:0101380022A4
:0B035F001203271202AE12009E80F86D
:1001450002035FE493A3F8E493A34003F68001F26E
:1001550008DFF48029E493A3F85407240CC8C333BB
:10016500C4540F4420C8834004F456800146F6DF8A
:10017500E4800B0102040810204080900350E47EC7
:10018500019360BCA3FF543F30E509541FFEE4937F
:10019500A360010ECF54C025E060A840B8E493A346
:1001A500FAE493A3F8E493A3C8C582C8CAC583CA71
:1001B500F0A3C8C582C8CAC583CADFE9DEE780BE29
:01035E00009E
:10024000BB010689828A83E0225002E722BBFE02BC
:09025000E32289828A83E49322EF
:10025900BC000BBE0029EF8DF084FFADF022E4CC89
:10026900F875F008EF2FFFEE33FEEC33FCEE9DEC52
:10027900984005FCEE9DFE0FD5F0E9E4CEFD22ED98
:10028900F8F5F0EE8420D21CFEADF075F008EF2FE2
:10029900FFED33FD4007985006D5F0F222C398FDD3
:0502A9000FD5F0EA2270
:00000001FF
