:020000040800F2
:1000000080A50020DD010008911E0008C51D000824
:10001000191E0008570E0008C92F00080000000034
:100020000000000000000000000000004501000882
:10003000251400080000000089010008FD2B0008BD
:10004000F7010008F7010008F7010008F7010008B0
:10005000F7010008F7010008F7010008F7010008A0
:10006000F7010008F7010008F7010008F701000890
:10007000F7010008F7010008F7010008F701000880
:10008000F7010008F7010008F7010008F701000870
:10009000F7010008F7010008F7010008F701000860
:1000A000F7010008F7010008F7010008F701000850
:1000B000F7010008F7010008F7010008F701000840
:1000C000F7010008F7010008F7010008F701000830
:1000D000F7010008F7010008F7010008892C000863
:1000E000F7010008F7010008F7010008F701000810
:1000F000F7010008F7010008F7010008F701000800
:10010000F7010008F7010008F7010008F7010008EF
:10011000F7010008F7010008F7010008F7010008DF
:10012000F7010008F7010008F7010008F7010008CF
:10013000DFF80CD000F0CEFC004800477D3E000800
:1001400080A50020224B19680868B0E8F00F80F302
:100150000988BFF36F8F4FF0000080F311884EF0D5
:100160000D0E70470000000006480068006880F32C
:10017000088862B661B6BFF34F8FBFF36F8F00DFA1
:1001800000BF00BF08ED00E0EFF30980BFF36F8F01
:100190000F4B1A6820E9F00F106008B54FF005000A
:1001A00080F31188BFF34F8FBFF36F8F04F096FA7F
:1001B0004FF0000080F31188BDE808401968086816
:1001C000B0E8F00F80F30988BFF36F8F704700BF6E
:1001D00050000020EFF3058070470000064880477C
:1001E00006480047FEE7FEE7FEE7FEE7FEE7FEE71C
:1001F000FEE7FEE7FEE7FEE7112C000831010008EC
:1002000040EA01039B0703D009E008C9121F08C098
:10021000042AFAD203E011F8013B00F8013B521E18
:10022000F9D27047D2B201E000F8012B491EFBD28F
:1002300070470022F6E710B513460A4604461946F1
:10024000FFF7F0FF204610BD421E12F8013F002BC1
:10025000FBD111F8013B02F8013B002BF9D17047AB
:1002600030B505462A460B4612F8010B13F8014B30
:1002700008B1A042F8D01CB1002802D06D1CF1E7F3
:10028000284630BDCAB2401E10F8011F8A4202D073
:100290000029F9D100207047421C10F8011B0029E9
:1002A000FBD1801A704710B5044600E0401C03786B
:1002B000002BFBD100E0401C521E04D311F8013B7F
:1002C0000370002BF7D100210170204610BD70B5DE
:1002D000064602F077FF046805460A2200213046F0
:1002E00000F0E2F92C6070BDF0B480EA0102D40F96
:1002F0004200B2EB410F02D20246084611464A00C4
:1003000042D0C30DDDB2C1F3C752AD1A202D35DA8C
:10031000C1F3160141F4000204B15242C5F12006B6
:1003200002FA06F12A411044B3EBD05F23D0C4B1E6
:10033000012DA0EBC35009DCF0BC4FF0004202EAF3
:10034000C352DBB200F5000000F0EFB9400000F14D
:10035000807000EBC350A0F1807040EAD17049007A
:1003600009E0490841EAC071A0EBC35000F5000064
:10037000400800EBC350F0BC00F0CEB9614201224E
:1003800002EB4101001BF6E7F0BC704781F0004131
:10039000AAE780F00040A7E780EA010210B502F06A
:1003A0000043400022D04A001FD0010E01EB126131
:1003B000C0F35600C2F3560240F4000042F40002BB
:1003C000A0FB022000047F39140400D0401C50EA36
:1003D000124001D44000491EC2B20C0604EBD010FA
:1003E000401C4008802A02D003E0002010BD20F00D
:1003F0000100002900DA0020184310BD30B480EA63
:10040000010202F0004530F0004221F0004013D01C
:1004100090B1C30DD40DC2F31601C0F31600E41A57
:1004200041F4000140F400027D34914201D3641C88
:1004300000E04900002C02DA30BC002070474FF485
:1004400000000023914201D3891A034340084FEA78
:100450004101F7D151B1914202D14FF0004105E085
:1004600002D24FF0010101E06FF0010103EBC45033
:10047000284430BC00F050B92DE9F04D81EA030466
:1004800004F0004B21F0004514464FF0000A23F021
:10049000004150EA050220D054EA01021DD0C5F304
:1004A0000A570246C5F31303C1F31300C1F30A56FA
:1004B00040F4801543F48013A7EB0608101BD646C2
:1004C00008F2FD3873EB050002D308F1010801E0E2
:1004D00092185B41B8F1000F03DA00200146BDE835
:1004E000F08D00204FF48011064684460EE0171B65
:1004F00073EB050705D3121B63EB050306434CEAB8
:10050000010C49084FEA300092185B4150EA01079C
:10051000EDD152EA030012D082EA040083EA050119
:10052000084305D0101BAB4106D20122002306E090
:1005300000224FF0004302E06FF0010253101AEB6B
:1005400006004CEB085110EB0A0041EB0B01BDE833
:10055000F04D00F018B996230022114600F0E5B8DE
:100560000EB540F2334102910021CDE900110A4657
:100570000B4600F017F903B000BD20F00040C10D9C
:10058000C0F3160040F400007F2901DA0020704714
:10059000962903DCC1F19601C8407047963988401E
:1005A0007047C1F30A5210B5C1F3130140F2FF3393
:1005B00041F480119A4201DA002010BD40F2334329
:1005C0009A42A2F2334203DC524200F05DF810BDC1
:1005D000904010BD00F0004230F000400AD0C10D44
:1005E00001F56071C0F3160042EA0151C2084007EC
:1005F0001143704700200146704730B50B46014655
:1006000000202022012409E021FA02F59D4205D3B1
:1006100003FA02F5491B04FA02F52844151EA2F15B
:100620000102F1DC30BD2DE9F05F05460020924665
:100630009B4688460646814640241BE028464146A4
:100640004746224600F020F853465A46C01A9141C8
:1006500010D311461846224600F04EFA2D1A67EBC9
:1006600001084F4622460120002100F045FA17EB11
:1006700000094E41201EA4F10104DFDC484631464A
:100680002A464346BDE8F09F202A04DB203A21FA9F
:1006900002F00021704721FA02F3D040C2F120029B
:1006A00091400843194670472DE9F04791460F469F
:1006B00080460446002614F8015B2DB100F03EFA96
:1006C0000068405DC007F6D12B2D02D02D2D18D02B
:1006D000641E4A463946204600F034FA27B139688C
:1006E000A14201D1C7F8008071054FF002040BD57B
:1006F0004042002803DD02F065FD0460A007BDE86C
:10070000F08746F48066E4E70028F8DA02F05AFD44
:1007100004606FF00040F2E70029A8BF7047401C5A
:10072000490008BF20F00100704710B4B0FA80FC07
:1007300000FA0CF050EA010404BF10BC704749B144
:10074000CCF1200421FA04F411FA0CF118BF0121B4
:1007500021430843A3EB0C01CB1D4FEA00614FEA94
:10076000102042BF002010BC704700EBC350104463
:100770000029A4BF10BC7047401C490008BF20F0EE
:10078000010010BC704710B5141E73F1000408DAA4
:10079000401C41F1000192185B411A4301D120F045
:1007A000010010BD2DE9F04D92469B4611B1B1FA02
:1007B00081F202E0B0FA80F22032904600F09CF91B
:1007C00004460F4640EA0A0041EA0B0153465A46E6
:1007D000084313D0114653EA010019D0C8F1400272
:1007E0005046FFF751FF05460E46504659464246D1
:1007F00000F082F9084305D0012004E02046394684
:10080000BDE8F08D0020054346EAE0762C433743EF
:100810000A986305E40AA0EB08000022FD0A44EAF6
:1008200047540A3002D500200146E9E701051019B6
:100830006941DDE9084500196941BDE8F04DA2E7CD
:100840002DE9FE4F804681EA0300C00F0C46009060
:1008500021F0004123F00045B8EB0200A94105D288
:100860004046214690461C460B46024623F0004077
:10087000104347D0270DC7F30A00C3F30A51029073
:10088000401A019040286BDAC3F3130040F4801B38
:100890000098924620B10023D2EB030A63EB0B0BC6
:1008A00001985946C0F14002504600F025F906462D
:1008B0000D4650465946019A00F02DF910EB0800FC
:1008C0006141002487EA115284EAE7731A4340D059
:1008D000009A62B3019A012A4FEA075215DC001B05
:1008E00061EB02014FF0004202EA0752CDE90042FB
:1008F000001C41F5801132462B46FFF753FF03B031
:10090000BDE8F08F40462146F9E7001B61EB02018C
:10091000001C41F5801300185B412018A2F5001758
:1009200047EB030140EAD570B6196D4111E06D083F
:100930004FEA360645EAC0754FEA0752001B61EBE5
:100940000201001C41F5801149084FEA30000019EE
:10095000514132462B4603B0BDE8F04FFFF713BFBD
:100960000098012240000023D0EB020263EBE07309
:10097000009821464FEAE074B8EB000061EB0401F7
:10098000E9E783F000435BE781F0004158E72DE998
:10099000FE4F81EA030404F0004421F0004100947A
:1009A0004FF0000B23F0004350EA01045ED052EAFE
:1009B00003045BD0C3F30A54C1F30A552C44A4F2D8
:1009C000F3340194A0FB0254C1F3130141F48011EC
:1009D000C3F3130343F4801301FB024400FB034EF3
:1009E000840A970A44EA815447EA8357A4FB0768BC
:1009F00002958D0A05FB07854FEA932C04FB0C54E6
:100A00002705029D4FEA065847EA1637B5EB080559
:100A10006EEB070C870E920E47EA811742EA8312AB
:100A2000A7FB0201B6EB0B0164EB00042B0D43EABC
:100A30000C335E1844EB1C50DA465146E7FB0201CA
:100A4000C5F313044FEA0B3343EA14534FEA04325D
:100A5000019C43EA0603A4F10C040294009CCDE936
:100A600000B4FFF79FFE03B0BDE8F08F0020014601
:100A7000F9E7C1F30A52C1F3130140F2FF3341F425
:100A800080119A4202DA00200146704740F2334357
:100A90009A42A2F2334202DC5242FFF7F5BD00F067
:100AA0002BB8000030B5041E71F1000404DB4FF0D8
:100AB0000044404264EB0101141E73F1000405DBA5
:100AC0001C464FF00043524263EB0403994208BFB7
:100AD000904230BD064C074D06E0E06840F001034F
:100AE00094E8070098471034AC42F6D3FFF724FB94
:100AF000684A0008884A0008202A04DB203A00FAE5
:100B000002F1002070479140C2F1200320FA03F364
:100B1000194390407047202A06DBCB17203A41FA50
:100B200002F043EAE07306E041FA02F3D040C2F17A
:100B30002002914008431946704700000048704762
:100B4000644A00082DE9F05F8246007800271546C8
:100B50008B460AF10104B946302801D09DB113E05B
:100B600014F8010B0127782803D0582801D045B18B
:100B70000AE00DB1102D07D10027102514F8010B44
:100B800002E0082500E00A250026B0460EE005FB3D
:100B9000080005FB06F1012701EB10461FFA80F85B
:100BA000B6F5803F00D3B94614F8010B294600F092
:100BB00018F80028EBDABBF1000F05D00FB1641E66
:100BC00000E05446CBF80040B9F1000F06D002F027
:100BD000F9FA02210160C81EBDE8F09F48EA06400C
:100BE000FAE73A2800D2303820F02002412A01D317
:100BF000A2F13700884201D34FF0FF307047000068
:100C000008B50121084601F0DFFD01214FF4017014
:100C100001F0FAFD0220ADF8000000208DF803007D
:100C20006946024801F036F808BD0000000801409E
:100C300010B5FFF7E5FF00F001F810BD00B585B075
:100C400000F0F4FA002000908DF8040001208DF8E7
:100C500005004FF4602002900020039001208DF8E1
:100C600010006946164800F057F84FF4804001F034
:100C70009FFD052301221146114800F075F801215E
:100C80000F4800F02AF801210D4800F01BF80C482D
:100C900000F0C6F800BF0A4800F034F80028FAD186
:100CA000074800F0CDF800BF054800F021F8002803
:100CB000FAD10121024800F0B8F805B000BD0000EB
:100CC0000024014021B1826842F00102826003E009
:100CD000826822F001028260704721B1826842F48A
:100CE0008072826003E0826822F4807282607047C2
:100CF000014600208A6802F004020AB1012000E0E7
:100D000000207047014600208A6802F008020AB1FC
:100D1000012000E00020704730B50246002000238B
:100D200050680F4C20400D790C6844EA052420439C
:100D3000506090680B4C2040D1E902542C434D790F
:100D400044EA450420439060D06A20F470000C7C93
:100D5000641EE4B2234340EA0350D06230BD000079
:100D6000FFFEF0FFFDF7F1FFF0B504460D46002051
:100D70000021092D11DDE068A5F10A0606EB460702
:100D8000072606FA07F18843A5F10A0606EB460690
:100D900003FA06F10843E0600CE0206905EB450723
:100DA000072606FA07F1884305EB450603FA06F124
:100DB00008432061072A0FDA606B561E06EB860790
:100DC0001F2606FA07F18843561E06EB860605FA2B
:100DD00006F10843606322E00D2A0FDA206BD61F6C
:100DE00006EB86071F2606FA07F18843D61F06EB97
:100DF000860605FA06F10843206310E0E06AA2F1D6
:100E00000D0606EB86071F2606FA07F18843A2F1B6
:100E10000D0606EB860605FA06F10843E062F0BD12
:100E2000816841F008018160704721B1826842F415
:100E3000A002826003E0826822F4A0028260704710
:100E4000816841F004018160704710B5012146209E
:100E500002F099FE10BD00BFFEE700000DE003F0B8
:100E600099FB06A002F074F9084800F011F803F0AD
:100E7000A3FB41F2883003F0DDFBF0E763686563B4
:100E80006B53656E736F720A000000001C00002037
:100E90007CB50446684600F05BF901F04FFD05465D
:100EA00001F074FD064601213B4800F089FF3B48F4
:100EB0000078864204DD0121374800F081FF0BE015
:100EC00037480078864204DA0121334800F076FF83
:100ED00002E00020334908703348B0F90000854231
:100EE00008DD3248007828B901F01AFE01202F49A8
:100EF00008700DE02E48B0F90000854208DA2B4852
:100F00000078012804D102F007F800202749087072
:100F100028A1324802F0B0F89DF8022030A12F48F5
:100F200002F0AAF8324632A12C4802F0A5F82A466F
:100F300033A12A4802F0A0F81B48B0F9002034A1E0
:100F4000264802F099F81A48B0F9002034A1234845
:100F500002F092F81148027835A1204802F08CF88E
:100F60000F48027836A11D4802F086F8384802780A
:100F700038A11A4802F080F826709DF802006070CF
:100F8000A57006480078A071054800786071064891
:100F90000078E07020797CBD000C01404400002006
:100FA00045000020490000204000002047000020AC
:100FB000420000202D2D2D2D2D2D2D2D2D2D2D2DB3
:100FC0002D2DBCE0B2E2CAFDBEDD2D2D2D2D2D2D27
:100FD0002D2D2D2D2D2D2D2D0D0A00000038014019
:100FE000CEC2B6C8A3BA256420A1E60D0A0000004F
:100FF000CAAAB6C8A3BA256420A3A552480D0A0000
:1010000020B9E2D5D52564206C780D0A00000000D7
:10101000D7EEB4F3B9E2D5D5A3BA25640D0A000022
:10102000D7EED0A1B9E2D5D5A3BA25640D0A000048
:10103000D7EEB4F3CAAAB6C8A3BA25640D0A000055
:10104000D7EED0A1CAAAB6C8A3BA25640D0A00007B
:1010500046000020CBAEB1C325640D0A000000009D
:1010600008B50121102001F0CFFB4FF40050ADF87E
:10107000000010208DF8030003208DF8020069465F
:10108000014800F007FE08BD0010014010B5FFF751
:10109000E7FF4FF40051024800F092FE10BD00003F
:1010A0000010014008B54FF40050ADF80000482092
:1010B0008DF803006946024800F0ECFD08BD000011
:1010C0000010014008B54FF40050ADF800001020AA
:1010D0008DF8030003208DF802006946014800F0F6
:1010E000D9FD08BD0010014070B50024002500BFE7
:1010F00027E000BF4FF40051144800F056FE0028CE
:10110000F8D0232000F084F84FF400510F4800F08D
:101110004CFE01280ED100BF4FF400510B4800F0E7
:1011200044FE0128F8D0C4F1070101208840C0B274
:10113000054304E0C4F10701012088408543601C99
:10114000C4B2082CD5DB284670BD00000010014059
:1011500010B50446FFF7B6FF4FF40051264800F0E3
:101160002DFE122000F04AF84FF40051224800F002
:1011700027FE1E2000F04CF8FFF794FF4FF40051BB
:101180001D4800F012FE88BB00BF4FF400511A4802
:1011900000F00BFE0028F8D000BF4FF400511648B5
:1011A00000F003FE0128F8D0FFF79EFF2070FFF744
:1011B0009BFF6070FFF798FFA070FFF795FFE0704E
:1011C000FFF792FF2071FFF77DFF4FF400510A48AF
:1011D00000F0F6FD207861780844A1780844E178B1
:1011E00008442179884202D1012010BD01E000208D
:1011F000FBE70020F9E700000010014030B504468D
:101200004FF47A7004FB00F5284600F001F830BD79
:10121000002106E00A2100BF0A1EA1F1010399B2D4
:10122000FAD1021EA0F10100F4D1704700B58BB0D5
:10123000114800F033F81148009011480190002047
:101240000290012003900020049005904FF48070DC
:10125000069080000790202008900002099000204E
:101260000A906946044800F0BFF80121024800F0E6
:1012700009F80BB000BD0000080002404C240140FA
:101280004A00002021B1026842F00102026004E03D
:1012900002684FF6FE731A400260704701684FF60D
:1012A000FE72114001600021016041608160C160F7
:1012B0004B49884208D14A490839496841F00F0131
:1012C000474A083A51608AE045491431884208D1BA
:1012D00043490839496841F0F001414A083A5160F0
:1012E0007DE03F492831884208D13D4908394968A5
:1012F00041F470613A4A083A516070E038493C3133
:10130000884208D136490839496841F47041344A65
:10131000083A516063E032495031884208D130497F
:101320000839496841F470212D4A083A516056E065
:101330002B496431884208D129490839496841F468
:101340007001274A083A516049E0254978318842BE
:1013500008D123490839496841F07061204A083AA8
:1013600051603CE01F49884206D1011F096841F0E5
:101370000F01021F116032E01A491431884208D16E
:101380001849091F096841F0F001164A121F11603F
:1013900025E014492831884208D11249091F0968FB
:1013A00041F470610F4A121F116018E00D493C3181
:1013B000884208D10B49091F096841F47041094A64
:1013C000121F11600BE007495031884207D10549CF
:1013D000091F096841F47021024A121F1160704709
:1013E000080002400804024010B50022026847F6D7
:1013F000F0739A430C6A8B6823430C6923434C694E
:1014000023438C692343CC6923434C6A23438C6A6E
:1014100023431A430260CB6843600B6883604B68C8
:10142000C36010BD704710B50446207B012802D16F
:10143000206802F0F3FB002020606060A060207351
:1014400010BD70B504460E460025206898B90120ED
:101450002073304602F072FD20602068E0B1002069
:101460006060A66003E00020216848556D1CA068FC
:10147000A842F8D810E00220207303E00020216881
:1014800048556D1CA068A842F8D800206060A0688C
:10149000B04201D20020206070BD2DE9F0478046A7
:1014A0000E4691461D46089C70190DB1062100E0BC
:1014B00002214718791D2046FFF7C3FF206810B9A5
:1014C0000120BDE8F087B0216268501C6060206890
:1014D0008154A1888AB23946206801F021FE6168F2
:1014E0000844606031126268501C6060206881545A
:1014F0006268501C606020688654D4E90012881825
:1015000032464146FEF77CFE60683044606015B3A9
:10151000290E6268501C606020688154C5F3074141
:101520006268501C606020688154C5F307216268BE
:10153000501C6060206881546268501C60602068A4
:101540008554D4E9001288182A464946FEF758FE09
:101550006068284460600020B3E700002DE9F04790
:101560008046894617461C464046FEF795FEC5B2A2
:101570004846FEF791FEC6B238212046FFF761FFCC
:10158000206810B90120BDE8F0871020216808709C
:101590006068401C606005F10D00304421684870AF
:1015A0006068401C6060002021688870032021680A
:1015B000C8706068801C60602168081D032221A13A
:1015C000FEF771FE6068C01C606001202168C87170
:1015D0006068401C60604020216808726068401CA0
:1015E0006060380A2168487221688F726068801CC8
:1015F000606000202168C87221680D736068801CDB
:101600006060216801F10D002A464146FEF74BFE5D
:10161000606828446060002105F10D0022681154C3
:10162000401C226816546068801C606021680F317D
:10163000481932464946FEF736FE6068304460601D
:101640000020A0E74544500010B504460221204682
:10165000FFF7F7FE206808B9012010BDC0216268BD
:10166000501C60602068815400216268501C6060DA
:10167000206881540020F0E72DE9F84F81460D469F
:1016800017461E460A9C002000904846FEF704FEBE
:1016900000F0FF08022E03D117B90120BDE8F88F32
:1016A000022E08D13846FEF7F7FD82465146204605
:1016B000FFF7C7FE04E005F118012046FFF7C1FE61
:1016C000206808B90220E9E780216268501C606048
:1016D00020688154B9F1000F3ED0022E06D1384661
:1016E000FEF7DAFD0C302844009003E005F1080015
:1016F00040440090A1888AB22068009901F010FD52
:10170000616808446060C0216268501C60602068A5
:10171000815400216268501C6060206881546168B7
:10172000481C6060206800F80180D4E90012881825
:1017300042464946FEF7B7FD606840446060552167
:101740006268501C606020688154AA216268501C45
:1017500060602068815425E0022E06D13846FEF7ED
:101760009BFD0A302844009001E0A81D0090A1884C
:101770008AB22068009901F0D3FC61680844606077
:1017800040216268501C6060206881545521626865
:10179000501C606020688154AA216268501C6060FF
:1017A000206881546168481C606020684654022E9D
:1017B0003AD13846FEF770FD00F0FF0A4FF0000BFB
:1017C00000216268501C6060206881546168481C78
:1017D0006060206800F801A00AE017F80B1062684A
:1017E000501C6060206881540BF1010000F0FF0B79
:1017F000D345F2DB290E6268501C6060206881547A
:10180000C5F307416268501C606020688154C5F3CD
:1018100007216268501C6060206881546268501C17
:101820006060206885540BE0C5F307216268501C96
:101830006060206881546268501C60602068855434
:1018400000202BE72DE9F84305460E46174698463B
:10185000DDF820900020009000242046641C285CC5
:10186000A02802D00120BDE8F883A2B2694628462C
:1018700001F044F80446601C08B90220F3E7601C3C
:10188000285C295D40EA01203880A41C3988481C66
:1018900002F054FB3060306808B90320E3E73A886F
:1018A000511C3068FEF7C5FC3A8829193068FEF7EC
:1018B000A7FC38880444285D0106601C285C41EAC6
:1018C0000041A01C285C41EA0020E11C695C08433F
:1018D000C9F80000241DD9F80010481C02F02EFBA6
:1018E000C8F80000D8F8000020B9306802F096F976
:1018F0000420B8E7D9F80020511CD8F80000FEF702
:1019000098FC2919D9F80020D8F80000FEF778FCD7
:10191000D9F8000004440020A5E70146C8787047C4
:101920002DE9F84305460E46174699460024002047
:10193000009080462046641C285C302802D001209C
:10194000BDE8F883A2B26946284600F0D7FF0446F6
:10195000601C08B90220F3E7601C285C295D40EA9E
:101960000128A41C08F1010002F0E8FA3060306898
:1019700008B90320E4E708F101013068FEF759FCDB
:10198000291942463068FEF73BFC444408F1020046
:101990000099081A00900098401C02F0CFFA3860B5
:1019A000386820B9306802F039F90420C8E738688F
:1019B0000099491CFEF73DFC29193868009AFEF78A
:1019C0001FFC009804440098C9F800000020B7E705
:1019D000014608787047000010B54FF48061034855
:1019E000FEF727FC00200249088010BDB800002047
:1019F0003C00002070B5054600241AE000F030F9E4
:101A000010E00FA10F48FEF72BFC044654B13A2119
:101A10002046FEF737FC044614B1641C204670BD16
:101A20000020FCE700F01CF90028EAD0052002F0B5
:101A300019FA281EA5F101018DB2DFD100BFEEE732
:101A400049504400B800002010B50121202000F0CA
:101A5000DBFEFFF7C1FF28A1294801F00DFB03E0E1
:101A60004FF4FA7002F0FEF926A127A000F0AAF8C0
:101A70000028F5D126A1224801F0FEFA03E04FF438
:101A8000FA7002F0EFF91FA124A000F09BF80028E3
:101A9000F5D119A11A4801F0EFFA03E04FF4FA70FA
:101AA00002F0E0F917A121A000F08CF80028F5D190
:101AB00021A1134801F0E0FA03E04FF4FA7002F0BC
:101AC000D1F920A121A000F07DF80028F5D127A1AF
:101AD0000B4801F0D1FA03E04FF4FA7002F0C2F9BA
:101AE00026A128A000F06EF80028F5D12FA1044807
:101AF00001F0C2FA10BD0000312E2041540D0A0041
:101B0000003801404F4B000041540D0A0000000016
:101B1000322E2043574D4F44450D0A0041542B436C
:101B2000574D4F44453D310D0A00000041542B52A2
:101B300053540D0A00000000332E2043574A4150F1
:101B40000D0A0000474F54204950000041542B43D8
:101B5000574A41503D226B6B6B222C223738393665
:101B60003332313435220D0A00000000342E204378
:101B7000495053544152540D0A000000434F4E4EF9
:101B80004543540041542B43495053544152543D12
:101B900022544350222C223138332E3233302E340B
:101BA000302E3339222C3837360D0A00352E204599
:101BB00053503832363620496E6974204F4B0D0A27
:101BC000000000002DE9F04104460D46C8262046DD
:101BD000FEF762FB87B23A4621460D4801F070FAE3
:101BE0000FE000F03DF848B929460A48FEF738FBF7
:101BF00020B1FFF7F1FE0020BDE8F0810A2002F0DD
:101C000031F9301EA6F10101CEB2EAD10120F3E78D
:101C100000480040B800002030B589B004460D46A9
:101C2000FFF7DAFE2A4608A101A801F0A1FA0AA1ED
:101C300001A8FFF7C7FF20B92A462146074801F04F
:101C40003FFA09B030BD000041542B434950534581
:101C50004E443D25640D0A003E000000004800404F
:101C60000A48008808B901207047084800880849D8
:101C70000988884203D1002004490880F4E703481A
:101C80000088034908800120EEE700003C000020A6
:101C90003E0000202DE9F0410246002500260020EC
:101CA00000230024002791F803C00CF00F0591F8E1
:101CB00003C00CF0100CBCF1000F03D091F802C06F
:101CC0004CEA050591F800C0BCF1000F31D0146852
:101CD00000202BE04FF0010C0CFA00F3B1F800C02B
:101CE0000CEA03069E4220D183004FF00F0C0CFA41
:101CF00003F7BC4305FA03FC4CEA040491F803C063
:101D0000BCF1280F06D14FF0010C0CFA00FCC2F810
:101D100014C00AE091F803C0BCF1480F05D14FF0A0
:101D2000010C0CFA00FCC2F810C0401C0828D1D3EA
:101D30001460B1F800C0BCF1FF0F34DD546800201E
:101D40002EE000F1080C4FF0010808FA0CF3B1F88E
:101D500000C00CEA03069E4221D183004FF00F0C15
:101D60000CFA03F7BC4305FA03FC4CEA040491F8AF
:101D700003C0BCF1280F05D100F1080C08FA0CF8DB
:101D8000C2F8148091F803C0BCF1480F07D100F1EC
:101D9000080C4FF0010808FA0CF8C2F81080401C3B
:101DA0000828CED35460BDE8F08102460020936835
:101DB0000B400BB1012000E00020704741617047EB
:101DC0000161704700BFFEE710B54FF4407000F0AE
:101DD00099F800F095FFFFF759F94FF4E13001F061
:101DE000F5F8FFF731FEFEF723FF01F083F900F06D
:101DF000EFFE01F071FFFFF728F802A001F0A8F94B
:101E000010BD0000486172647761726520696E6977
:101E100074206F6B0D0A000000BFFEE710B504468A
:101E2000042C18D004DC022C07D0032C1AD10BE0B0
:101E3000052C08D00F2C15D10EE00BA001F088F96D
:101E400000F07CFC0EE00DE00AA001F081F90C48E6
:101E500000F022FC06E005E00AA001F079F902F0AA
:101E600013FB00BF00BF10BD53656E64486561720F
:101E70007400000053656E64446174610A000000E0
:101E80001C000020D6D8C1ACCDF8C2E7000000008D
:101E90007047000070B5002100230F22C47804B3FE
:101EA000154C246804F4E064C4F5E064210AC1F12F
:101EB0000403CA40447804FA03F1847814402143AF
:101EC00009010E4C0678A155047804F01F05012481
:101ED000AC4005786D11AD0005F1E025C5F8004175
:101EE00009E0047804F01F050124AC40044D067895
:101EF000761145F8264070BD0CED00E000E400E0EE
:101F000080E100E002490143024A1160704700008D
:101F10000000FA050CED00E00026002414A001F0FA
:101F200017F923E015480078C8B9701C80B206463E
:101F3000282804DB00260220FFF770FF12E0601C57
:101F400080B20446142804DB00240320FFF766FF58
:101F500008E01E2D06DB0620FFF760FF02E00F20E1
:101F6000FFF75CFF4FF4FA7002F064FBDAE7000061
:101F70004E65745F5461736B000000001400002014
:101F800010B500240520FFF735FD044614B12046A6
:101F900000F032FA10BD00007FB5002000900190E3
:101FA00002900390012538A33FA242A14C4801F0C2
:101FB00063F86B462A0234A13BA0FFF7CFFA002852
:101FC00058D1019A91B20098FFF726FEFA20FFF748
:101FD00011FD0446002C49D02046FFF7F9FC2028CB
:101FE00044D12046FFF799FC0A2839D2DFE800F0F7
:101FF000050B10151A1F24292E333AA1384801F079
:102000003BF8002531E03CA1354801F035F82CE0E3
:1020100040A1334801F030F827E047A1304801F0F3
:102020002BF822E04CA12E4801F026F81DE053A128
:102030002B4801F021F818E057A1294801F01CF8BD
:1020400013E05DA1264801F017F80EE062A12448D4
:1020500001F012F809E069A1214801F00DF804E04F
:1020600070A11F4801F008F800BF00BF6846FFF7E5
:10207000DAF903E072A11A4800F0FEFF15B1012061
:1020800004B070BD0020FBE7616A543D7547516D97
:1020900050733156366D65306E45526D42725276D0
:1020A0006251673D00000000343730393935363928
:1020B000000000004F6E654E65745F4465764C69A4
:1020C0006E6B0D0A44455649443A2025732C202056
:1020D0002020204150494B45593A2025730D0A00D4
:1020E00000380140546970733A09C1ACBDD3B3C91B
:1020F000B9A60D0A000000005741524E3A09C1AC82
:10210000BDD3CAA7B0DCA3BAD0ADD2E9B4EDCEF34B
:102110000D0A00005741524E3A09C1ACBDD3CAA7BF
:10212000B0DCA3BAC9E8B1B84944BCF8C8A8CAA78A
:10213000B0DC0D0A000000005741524E3A09C1AC14
:10214000BDD3CAA7B0DCA3BAB7FECEF1C6F7CAA703
:10215000B0DC0D0A000000005741524E3A09C1ACF4
:10216000BDD3CAA7B0DCA3BAD3C3BBA74944BCF84C
:10217000C8A8CAA7B0DC0D0A000000005741524EA3
:102180003A09C1ACBDD3CAA7B0DCA3BACEB4CADA8F
:10219000C8A80D0A000000005741524E3A09C1ACD0
:1021A000BDD3CAA7B0DCA3BACADAC8A8C2EBCEDED8
:1021B000D0A70D0A000000005741524E3A09C1ACA9
:1021C000BDD3CAA7B0DCA3BABCA4BBEEC2EBCEB4ED
:1021D000B7D6C5E40D0A00005741524E3A09C1ACCA
:1021E000BDD3CAA7B0DCA3BAB8C3C9E8B1B8D2D1CD
:1021F000B1BBBCA4BBEE0D0A000000005741524E1B
:102200003A09C1ACBDD3CAA7B0DCA3BAD6D8B8B41A
:10221000B7A2CBCDC1ACBDD3C7EBC7F3B0FC0D0AA1
:10222000000000004552523A09C1ACBDD3CAA7B064
:10223000DCA3BACEB4D6AAB4EDCEF30D0A000000EA
:102240005741524E3A094544505F5061636B657483
:10225000436F6E6E656374204661696C65640D0A38
:10226000000000007FB505460C460020009001905C
:10227000029003903EA000882880002000900190EA
:102280000290039062783BA1684600F071FF6946B6
:102290002846FDF7D9FF002000900190029003909E
:1022A000227839A1684600F063FF69462846FDF7A9
:1022B000CBFF00200090019002900390A27836A1FD
:1022C000684600F055FF69462846FDF7BDFF00202F
:1022D00000900190029003903248027832A1684643
:1022E00000F046FF69462846FDF7AEFF002000904B
:1022F000019002900390E2782EA1684600F038FF2A
:1023000069462846FDF7A0FF00200090019002904A
:10231000039022792BA1684600F02AFF69462846DF
:10232000FDF792FF00200090019002900390A279A7
:1023300028A1684600F01CFF69462846FDF784FF87
:1023400000200090019002900390627925A16846D8
:1023500000F00EFF69462846FDF776FF25A12846C6
:10236000FDF772FF2846FDF797FFC0B204B070BDBD
:102370007B0000002254656D706572617475726532
:10238000223A25642C0000002248756D6964697446
:1023900079223A25642C0000224C69676874223A3D
:1023A00025642C0046000020225761746572223A91
:1023B00025642C00224C696768745F4D6178223A6D
:1023C00025642C00224C696768745F4D696E223A5F
:1023D00025642C002248756D5F4D6178223A256492
:1023E0002C0000002248756D5F4D696E223A25640D
:1023F000000000007D0000002DE9F0418CB0064691
:102400000020089009900A900B9007900690059084
:102410000490804600270025002469490870DDE902
:10242000080101F023FC3046FFF7D2FA8046B8F1EC
:10243000300F09D0B8F1900F33D0B8F1A00F14D0FD
:10244000B8F1D00F4AD142E004AB05AA07A9304643
:10245000FFF766FA07463FB90498009059A1634810
:10246000059B079A00F008FE3BE004A805AB06AA0E
:1024700007A900903046FFF7E5F9074687B908A895
:102480000090BDF81810DDE904320798FFF705F851
:102490000498009056A15548059B079A00F0ECFD62
:1024A0001FE0F07855280DD13079AA280AD170792B
:1024B00008B158A000E058A0024658A14B4800F0CF
:1024C000DBFD03E059A1494800F0D6FD09E05DA01D
:1024D00000F03EFE01203A49087002E04FF0FF375D
:1024E00000BF00BFFFF778FA781C10B90CB0BDE848
:1024F000F0813A210598FDF7C5FE0546002D4AD02A
:102500006D1C05E015F8012B2046641C01A90A5436
:102510002878302802DB28783928F3DD01A8FDF778
:10252000D6FE04464AA10598FDF79AFE90B1012C0B
:1025300007D101204849087001214848FFF73EFCB7
:1025400029E0FCB900204449087001214348FFF705
:1025500037FC20E042A10598FDF782FE10B1424908
:102560000C7018E041A10598FDF77AFE10B14149C1
:102570000C7010E040A10598FDF772FE18B120B272
:102580004049088007E040A10598FDF769FE10B1B9
:1025900020B240490880B8F1A00F0ED16FB907985A
:1025A00001F03CFB059801F039FB099A91B20898BB
:1025B000FFF732FB08A8FEF736FF00BF96E70000E2
:1025C000480000207372635F64657669643A202571
:1025D000732C207265713A2025732C207265715F0F
:1025E0006C656E3A2025640D0A0000000038014039
:1025F000636D6469643A2025732C207265713A20FA
:1026000025732C207265715F6C656E3A2025640D10
:102610000A000000457272004F6B0000546970732D
:102620003A0953656E642025730D0A00546970736E
:102630003A094D657373616765204944204572729C
:102640000D0A0000D0C4CCF8BBD8D3A6000000000F
:10265000576174657200000046000020000C0140C4
:1026600048756D5F4D6178004400002048756D5FCE
:102670004D696E00450000204C696768745F4D61CC
:1026800078000000400000204C696768745F4D6965
:102690006E0000004200002070B5A6B00646002083
:1026A000229023902490259000240025802102A8C8
:1026B000FDF7BFFD314602A8FFF7D4FD0446002C0C
:1026C00021D022A803230022214600900FA0FEF76C
:1026D000D3FFA0B908E002A8415D239A501C2390C3
:1026E00022988154681C05B2A542F4DB239A91B26A
:1026F0002298FFF791FA22A8FEF795FE03E006A1C3
:102700000D4800F0B9FC26B070BD000034373039F8
:1027100039353639000000005741524E3A094544D8
:10272000505F4E6577427566666572204661696CDA
:1027300065640D0A00000000003801401FB500204C
:1027400000900190029003906846FEF77DFF80B9EB
:102750000AA0019900F0FCFC019A91B20098FFF7E1
:102760005BFADDE9000101F081FA6846FEF75BFEE5
:1027700002E00CA000F0ECFC1FBD000073656E646D
:102780002070696E6720706B7420746F207365729F
:102790007665722C2062797465733A2025640D0A7F
:1027A00000000000D0C4CCF8CAA7B0DC00000000D4
:1027B00001460020034A506820F44040084350601E
:1027C000704700000010024029B1064A52690243D6
:1027D000044B5A6104E0034A52698243014B5A6137
:1027E000704700000010024029B1064AD269024336
:1027F000044BDA6104E0034AD2698243014BDA6197
:10280000704700000010024029B1064A9269024355
:10281000044B9A6104E0034A92698243014B9A6136
:10282000704700000010024030B500210022002453
:1028300000232D4D6D6805F00C0121B1042905D050
:10284000082923D105E0294D056022E0274D0560C8
:102850001FE0254D6D6805F47012234D6D6805F479
:102860008034022505EB92421CB9214D5543056089
:102870000BE01D4D6D6805F400351DB11C4D554331
:10288000056002E0194D5543056002E0174D0560F3
:1028900000BF00BF144D6D6805F0F0010909154D2A
:1028A0006B5C0568DD4045600F4D6D6805F4E061C7
:1028B000090A104D6B5C4568DD4085600A4D6D6806
:1028C00005F46051C90A0B4D6B5C4568DD40C5607D
:1028D000054D6D6805F44041890B074D6B5CC5687B
:1028E000B5FBF3F5056130BD0010024000127A001F
:1028F00000093D000000002010000020F0B5034654
:102900000124002600250020086000BF1046571C47
:10291000BAB21D5C05F07F07086807FB0400086079
:10292000E401761C042E02D94FF0FF30F0BD05F013
:1029300080000028EAD11046F8E700002DE9F047B2
:102940001021462001F01FF9FA2001F0DBF80222E5
:1029500047210C4801F0DFF8FA2001F0D3F801F02C
:10296000AFF88146FDF7FCFD07464FF03332064BCA
:10297000FDF782FD0546FDF714FE84B2E0B2BDE826
:10298000F08700004C0000203333F33F2DE9F04185
:10299000002500240EE01C480088FDF7DCFD0646FB
:1029A0002946FDF7A1FC05464FF4FA7001F05AFAEA
:1029B000601CC4B2032CEEDB14492846FDF71EFD53
:1029C000054613492846FDF7E1FC07461149FDF786
:1029D00015FD06464FF07E51FDF7DBFC804628468C
:1029E000FDF7F8FD064632460B460BA000F0B0FBA3
:1029F0000A494046FDF7D0FC80464046FDF7BDFD44
:102A0000C0B2BDE8F08100004A0000200000404054
:102A100000409C4400E02B45256600000000C842B1
:102A200008E0FFF7ADFA0420FFF7F8F94FF4C8709B
:102A300001F000FEF5E710B500F002F810BD00004F
:102A40000CB50020019000903348006840F48030BD
:102A50003149086000BF3048006800F40030009041
:102A60000198401C0190009818B90198B0F5A06F2A
:102A7000F1D12948006800F4003010B10120009025
:102A800001E0002000900098012843D1234800680D
:102A900040F01000214908600846006820F003005B
:102AA00008600846006840F0020008601A48406864
:102AB000194948600846406848600846406840F444
:102AC000806048600846406820F47C1048600846F2
:102AD000406840F4E81048600846006840F08070A4
:102AE000086000BF0C48006800F000700028F9D0B2
:102AF0000948406820F003000749486008464068DC
:102B000040F00200486000BF0348406800F00C003D
:102B10000828F9D10CBD000000100240002002403E
:102B200010B580244BE001212848FFF749F9022124
:102B30002648FFF743F904212448FFF73FF908210D
:102B40002248FFF73BF9322001F08CF901211F48A0
:102B5000FFF734F902211D48FFF732F904211B4821
:102B6000FFF72CF908211948FFF728F9322001F066
:102B700079F901211548FFF721F902211348FFF7E0
:102B80001DF904211148FFF71BF908210F48FFF731
:102B900015F9322001F066F901210C48FFF70EF912
:102BA00002210A48FFF70AF904210848FFF706F94D
:102BB00008210648FFF704F9322001F053F9201EDE
:102BC000A4F10101CCB2AED110BD00000010014053
:102BD00008B501211020FFF717FE0F20ADF8000007
:102BE00010208DF8030003208DF80200694602488A
:102BF000FFF750F808BD00000010014010B501F0CB
:102C000001FE012801D001F0B3FD00F031F810BD44
:102C100010B51348006840F00100114908600846EB
:102C20004068104908400E494860084600680E494F
:102C300008400B4908600846006820F480200860BE
:102C40000846406820F4FE0048604FF41F0088608A
:102C5000FFF7F1FE4FF000600449086010BD00006E
:102C6000001002400000FFF8FFFFF6FE08ED00E054
:102C70000448006820B103480068401E014908600C
:102C8000704700003400002010B540F225510E4876
:102C900000F083F8B8B10D480088B0F5806F02D31A
:102CA00000200A4908800848001D0088C1B2074872
:102CB00002880088401C054B18800548815420215B
:102CC000014800F007F810BD004800403C0000201B
:102CD000B800002001F40072B2F5007F00D100BFFF
:102CE000CA430280704721B1828942F40052828136
:102CF00004E082894DF6FF731A408281704700001C
:102D000000B585B001210420FFF77EFD0121880375
:102D1000FFF77AFD4FF40070ADF8100018208DF821
:102D2000130003208DF8120004A91348FEF7B2FF28
:102D30004FF48060ADF8100004208DF8130004A952
:102D40000D48FEF7A7FF4FF4E13000900020ADF8EA
:102D50000400ADF80600ADF80800ADF80C000C203A
:102D6000ADF80A006946054800F066F801210348FD
:102D7000FFF7B9FF05B000BD000801400038014071
:102D800002460020B1F5007F00D100BF13880B4040
:102D90000BB1012000E00020704770B5024600240E
:102DA00000230025002040F66A16B14200D100BF82
:102DB000C1F3421501F01F03012606FA03F3012DAA
:102DC00002D19689334006E0022D02D1168A3340A3
:102DD00001E0968A33400C12012606FA04F41688A4
:102DE000344013B10CB1012000E0002070BDF0B5FB
:102DF0000346002400260025002040F66A17B94249
:102E000000D100BF1846C1F3421401F01F0601278C
:102E100007FA06F5012C01D10C3004E0022C01D197
:102E2000103000E014301AB107682F43076002E049
:102E30000768AF430760F0BD2DE9F04786B005464F
:102E40000E460024A24600BFA1460027B08900B16B
:102E500000BF2F462C8A4CF6FF700440F0880443D4
:102E60002C82AC894EF6F3100440B08831890843B7
:102E7000718908430443AC81AC8A4FF6FF4004409B
:102E8000B0890443AC8201A8FFF7CEFC1F488742FB
:102E900002D1DDF810A001E0DDF80CA0A88900F453
:102EA000004040B10AEBCA0000EB0A10316849004B
:102EB000B0FBF1F807E00AEBCA0000EB0A1031683A
:102EC0008900B0FBF1F86420B8FBF0F004012009A0
:102ED000642101FB1089A88900F4004040B1322030
:102EE00000EBC900B0FBF1F000F00700044308E07C
:102EF000322000EB09106421B0FBF1F000F00F006C
:102F000004432C8106B0BDE8F08700000038014082
:102F1000C1F308028280704710B580244BE0012184
:102F20002848FEF74DFF02212648FEF747FF0421FF
:102F30002448FEF743FF08212248FEF73FFF3220D6
:102F400000F090FF01211F48FEF738FF02211D48C5
:102F5000FEF734FF04211B48FEF730FF0821194813
:102F6000FEF72EFF322000F07DFF01211548FEF70D
:102F700025FF02211348FEF721FF04211148FEF727
:102F80001FFF08210F48FEF719FF322000F06AFFEB
:102F900001210C48FEF712FF02210A48FEF710FF3C
:102FA00004210848FEF70AFF08210648FEF706FF3D
:102FB000322000F057FF201EA4F10101CCB2AED1A7
:102FC00010BD00000010014000BFFEE710B586B044
:102FD000044601210920FFF717FC01218804FFF7AF
:102FE00003FC18208DF817004FF48060ADF8140032
:102FF00003208DF8160005A91D48FEF74BFE04209E
:103000008DF817004002ADF8140003208DF816006B
:1030100005A91748FEF73EFE01940020ADF8100008
:103020000C20ADF80E000020ADF80C00ADF80A0041
:10303000ADF8080001A90F48FFF7FEFE01210D4879
:10304000FFF751FE012240F225510A48FFF7CFFE5B
:1030500027208DF8000001208DF8030000208DF856
:1030600001008DF802006846FEF714FF06B010BD9F
:10307000000C0140004800400FB430B5CBB005460D
:1030800001AC50A800904FF4947101A8009B4F9A96
:1030900000F082F8002000900BE014F8011B284695
:1030A000FFF736FF00BF40212846FFF769FE0028E2
:1030B000F9D020780028F0D14BB030BC5DF814FB7B
:1030C0002DE9F04107460C46154600260DE014F8A0
:1030D000011B3846FFF71CFF00BF40213846FFF7B1
:1030E0004FFE0028F9D0701C86B2AE42EFDBBDE87F
:1030F000F081000008B514208DF803000120ADF820
:10310000000003208DF8020069460448FEF7C2FD66
:1031100001210248FEF754FE08BD0000000C0140EA
:1031200070B503460024002500BF01F07F05C909E2
:1031300009B145F080051046561CB2B21D54641CFE
:1031400009B1052CF1DB501E80B2024670BD0000B3
:103150000FB4054B10B503A9044A029800F008F912
:1031600010BC5DF814FB0000F93B0008A80000202B
:103170000FB4084B10B504A902AA039800F0F8F8A0
:10318000044602A9002000F095FC204610BC5DF822
:1031900014FB0000B53A00087CB5044600201D462B
:1031A000164600290BD0491ECDE90041044B6A4662
:1031B0002946304600F0DCF8009A002111707CBDF1
:1031C0009F3A000800487047B400002002E008C899
:1031D000121F08C1002AFAD170477047002001E091
:1031E00001C1121F002AFBD1704700002DE9FF5FCB
:1031F00082B00021DDE90430020DDDF840B0034368
:1032000018D044F61050A2F2FF3242431514119820
:1032100001281FD0A5EB0B00401C5FEA000A4FF00D
:1032200000064E4FDFF83891B046504615D5CAF12A
:10323000000413E0119801244AA3012801D16FEA88
:103240000B010298119AC0E90031C0E9024206B0B0
:10325000BDE8F09FCBF10000DFE704460021404AC3
:10326000491842EB0450CDE9001012E0E00707D006
:1032700032463B4640464946FDF789FB8046894633
:1032800032463B4610461946FDF781FB06460F467F
:103290006410002CEAD1DDE90401DDE90023BAF174
:1032A000000F06DAFDF773FB42464B46FDF76FFB56
:1032B00005E0FDF7E1F842464B46FDF7DDF8044630
:1032C0000E460022284BFDF7EDFB03D84FF0FF30F0
:1032D000014607E00022254B20463146FDF7B0FAB3
:1032E000FDF7C7FB102409E0002C0ADB0A220023AB
:1032F000FDF799F9039B30321A55641E50EA01021A
:10330000F2D1641C039AC4F111031444119A012AE6
:1033100003D0012208430DD10AE0084304D0002065
:103320004FF0110B119072E7A3EB0B056D1E0DE032
:103330005B4504DD4FF0000205F1010504E003DA0E
:103340004FF00002A5F10105002AECD00298119976
:10335000C0E90231C0E9004579E7000000001440EF
:103360000000F03F300000000000F0430000E03FAC
:103370002DE9FF4F95B09B468946064600250FE292
:10338000252877D100242746F84A0121059400E03A
:10339000044316F8013F203B01FA03F01042F7D135
:1033A00030782A2811D06FF02F033078A0F1300246
:1033B000092A16D8059A44F0020402EB820203EBB4
:1033C00042021044761C0590EFE759F8042B059251
:1033D000002A03DA504244F40054059044F00204F9
:1033E000761C30782E2816D116F8010F44F004040C
:1033F0002A280DD06FF02F023078A0F13003092B6E
:1034000009D807EB870302EB4303C718761CF3E7E1
:1034100059F8047B761C30786C280FD006DC4C28D9
:1034200017D068280DD06A2814D104E0742810D071
:103430007A280FD10DE044F400140AE044F480141B
:1034400001E044F440147278824202D104F5801401
:10345000761C761C307866280BD013DC582877D081
:1034600009DC002875D04528F6D04628F4D0472836
:103470001AD19DE118E0632835D0642879D06528F9
:1034800012D195E1702873D008DC6728F1D0692843
:103490006FD06E280DD06F2806D1B5E073282CD0E0
:1034A000752875D0782874D05A46179990476D1CA6
:1034B00075E1C4F30250022809D003280DD0D9F8D1
:1034C000001004280DD00D6009F1040967E1D9F856
:1034D0000010EA17C1E90052F6E7D9F800100D8094
:1034E000F2E70D70F0E719F8041B8DF800100020CA
:1034F0008DF80100EA46012003E059F804AB4FF0D3
:10350000FF3061074FF0000102D40DE008F1010126
:103510008846B9420FDA8045F8DB1AF8081000290E
:10352000F4D108E008F1010188468142FADB1AF87B
:1035300008100029F6D105985B46A0EB0807214644
:103540003846179A00F094FA284400EB080507E083
:103550004DE029E10DE01AF8010B5A461799904702
:10356000B8F10108F7D25B4621463846179A13E1B5
:1035700042E00A220092C4F302524FF0000A022AEB
:1035800008D059F804CB032A4FEAEC710AD00DE0B9
:1035900029E02AE009F1070121F00702F2E802C15F
:1035A000914609E00FFA8CFC4FEAEC71042A03D132
:1035B0004FFA8CFC4FEAEC71002907DA0A46002129
:1035C000DCF1000C61EB02012D2202E0220504D5A2
:1035D0002B228DF80420012203E0E20701D02022F3
:1035E000F7E7904659E00A2102E010220DE0102191
:1035F0004FF0000A00910BE010224FF0000A44F057
:1036000004040827009203E008224FF0000A009209
:10361000C4F30252022A05D059F804CB0021032A30
:1036200008D009E009F1070121F00702F2E802C120
:10363000914605E01FFA8CFC042A01D10CF0FF0C26
:103640004FF00008220728D5702806D0009B83F091
:10365000100353EA0A0305D00EE040228DF804203F
:10366000012208E05CEA010206D030228DF8042035
:103670008DF8050002229046009B83F0080353EA70
:103680000A030AD15CEA010201D1620705D53022A2
:103690008DF804204FF001087F1E582804D034A074
:1036A00003900EA802900DE036A0F9E7534660465D
:1036B000009AFCF7B8FF84460398825C0298401E8B
:1036C000029002705CEA0100F0D1029806A9081A83
:1036D00000F1200A600702D524F4803400E00127BD
:1036E000574502DDA7EB0A0000E0002000EB0A01CD
:1036F000009005984144401A0590E00306D45B46CB
:103700002146179A059800F0B3F90544002706E012
:1037100001A85A46C05D179990476D1C7F1C47450C
:10372000F6DBE0030CD55B462146179A059800F0BE
:103730009FF9054404E030205A46179990476D1CC4
:103740000099481E00900029F5DC08E002980299D3
:103750005A460078491C0291179990476D1CBAF19E
:103760000001AAF1010AF1DC65E10000092801006D
:1037700030313233343536373839616263646566E7
:1037800000000000303132333435363738394142A9
:10379000434445460000000000F058F90544761CFB
:1037A000307800287FF4ECAD19B02846BDE8F08FE2
:1037B000620700D4062709F1070222F0070CFCE893
:1037C0000223E14603F000485FEA080C02D00FF242
:1037D000702C0DE05FEA045C02D50FF2682C07E064
:1037E0005FEAC47C02D00FF2602C01E0AFF2700CF3
:1037F0004FF0FF3823F00043CDF850C065280CD0BF
:1038000006DC452809D046281DD047283DD13DE09B
:10381000662818D067287ED138E00021112F01DBFF
:10382000112000E0781CCDE9000106A90EA8FFF7E1
:10383000DDFCDDE90F010E9A03910021009207F1F2
:10384000010A04914DE04FF000400097CDE90110CE
:1038500006A90EA8FFF7CAFCDDE90F0203920E9B32
:1038600011990022DDF80CA00093049211B9791C83
:1038700000EB010AB7EB0A0004D4C0F1FF3007F1F6
:10388000010A0490AAEB0700019044E0012F00DA3E
:1038900001270021112F01DD112000E03846CDE97C
:1038A000000106A90EA8FFF7A1FCDDE90F010E9AA1
:1038B0000391002104910092BA4621070CD4039988
:1038C000514500DA8A46BAF1010F05DD009AAAF1E6
:1038D0000101515C302908D0B84202DA10F1040F1E
:1038E00006DA0121CDE9011015E0AAF10101E9E7AD
:1038F000002805DC049901440491AAEB000102E0D0
:10390000411C514500DD8A460499401A401C019033
:103910004FF000400290200704D40198504501DB8D
:10392000CDF8048000208DF84F0002980DF14F076C
:10393000B0F1004F25D02B200E9002984FF00208D6
:1039400000280CDA404202902D200E9007E00A2158
:103950000298FCF752FE3031029007F8011DB8F1D1
:103960000001A8F10108F2DC02980028EFD1791ECD
:103970000E980870307800F0200040F0450007F8FD
:10398000020D12A8C01B00F107081498007800B1BE
:10399000012000EB0A01019801EBE0710598414418
:1039A000401A401E0590E00306D45B462146179A54
:1039B000059800F05DF805441498007818B15A464F
:1039C000179990476D1CE00324D55B462146179A52
:1039D000059800F04DF805441CE00498002807DB2A
:1039E000DDE90301884203DD0098405C179901E09E
:1039F000179930205A469047049805F10105401C5C
:103A000004900198401E019004D12E205A46179927
:103A100090476D1CBAF10001AAF1010ADDDC05E056
:103A200017F8010B5A46179990476D1CB8F1000121
:103A3000A8F10108F4DC5B462146179A0598ABE62D
:103A40002D0000002B000000200000002DE9F041B7
:103A5000044600251E461746880404D405E039466E
:103A60002020B0476D1C641EF9D52846BDE8F081C2
:103A70002DE9F041044600251E469046C80301D5B5
:103A8000302700E02027880404D505E04146384669
:103A9000B0476D1C641EF9D52846BDE8F0814A6820
:103AA000002A06D00A68531C0B6010704868401E3C
:103AB000486070470A68531C0B6010707047000024
:103AC0002DE9F0410C48407804020B48007820446E
:103AD00084B22046FCF73FFD07460849FCF78EFC00
:103AE00006460749FCF758FC0546FCF746FD84B23C
:103AF0002046BDE8F08100004C00002000FF7F4719
:103B00000000C84201B502E00098401E00900098F5
:103B10000028F9D108BD2DE9F04106460F461546AB
:103B200000F05AF9462000F02DF900F07DF900B1BF
:103B300025E0F8B200F026F900F076F900B11EE0B9
:103B400000F04AF9472000F01DF900F06DF900B1CE
:103B500015E000240CE000F0F3F83055681EA04298
:103B600002D000F0A1F801E000F0D6F8601C84B2A9
:103B7000AC42F0DB00F048F90120BDE8F08100F034
:103B800043F90020F9E72DE9F04107460D462E469E
:103B9000B8F1000F02D006F00700E8B900F034F9E0
:103BA00000240AE000F018F9462000F0EBF800F0DD
:103BB0003BF900B904E0601C84B2B4F57A7FF1DB14
:103BC00000BFB4F57A7F00D112E0F0B200F0DAF86D
:103BD00000F02AF900B10BE0384600F0D3F800F00D
:103BE00023F900B104E000F00FF90120BDE8F081F5
:103BF00000F00AF90020F9E770B504460D46E1B27D
:103C00000548FFF785F900BF80210348FFF7B8F8A2
:103C10000028F9D0204670BD0038014010B50028BA
:103C200021D0114B0022001F196803E0814203D804
:103C30000A4649680029F9D152B11368841A9C4296
:103C400004D1006818441060104602E0506000E0A3
:103C5000186039B102680B1A934203D10B681A44F9
:103C600002604968416010BDAC00002070B5054697
:103C70000E4600240BE0295D08A0FFF769FA601CDE
:103C800000F0070010B907A0FFF762FA641CB44205
:103C9000F1D304A0FFF75CFA70BD00002530325864
:103CA000200000000D0A000010B5802009490860BE
:103CB00000F02AF840200749091F086000F024F8A6
:103CC00040200449086000F01FF880200149091FC6
:103CD000086010BD140C014008B501210820FEF752
:103CE00093FDC020ADF8000003208DF802001420E1
:103CF0008DF8030069460348FDF7CCFF00F084F817
:103D000008BD0000000C0140002001E0411CC8B2C9
:103D10000A28FBDB7047000010B5802007490860C7
:103D2000FFF7F2FF402005490860FFF7EDFF402054
:103D30000249091D0860FFF7E7FF10BD100C0140A4
:103D400070B50024002516E06006040E40200C49E2
:103D50000860FFF7D9FF0A480838006800F08000C3
:103D600008B1601CC4B240200549091D0860FFF776
:103D7000CBFF681CC5B2082DE6DB204670BD0000F5
:103D8000100C014070B50446002520E004F08000CE
:103D900018B180200F49086003E080200D49091DFB
:103DA0000860FFF7B1FF40200A490860FFF7ACFF49
:103DB00040200849091D0860072D02D18020091FF5
:103DC00008606006040EFFF79FFF681CC5B2082D4F
:103DD000DCDB70BD100C014010B580200949086083
:103DE00040200860FFF790FF80200649091D086009
:103DF000FFF78AFF40200349091D0860FFF784FF91
:103E000010BD0000100C014010B58020054908606D
:103E10004020091F0860FFF777FF80200149091F34
:103E2000086010BD140C014010B580200C490860DA
:103E3000FFF76AFF40200A490860FFF765FF08485E
:103E40000838006800F0800008B1012400E0002478
:103E500040200349091D0860FFF756FF204610BDAA
:103E6000100C0140002106E0002100E0491CB1F5E2
:103E7000FA6FFBD3401E0028F6D170471CB5FDF742
:103E8000A3FF03E04FF4FA70FFF7ECFFFEF784F8AE
:103E90000028F7D11449087014A0FFF759F9164803
:103EA000052116A34FF48072CDE9001013A1174825
:103EB00000F078FC1648022116A34FF4C072CDE939
:103EC000001014A1174800F06DFC1748042117A337
:103ED0000A02CDE9001015A1174800F063FC00F0BC
:103EE000C3FB00201CBD000014000020737461722D
:103EF00074205441534B00002C0000205265636530
:103F0000697665436D645461736B0000212A000873
:103F100024000020436865636B53656E736F7254B1
:103F200061736B005D0E0008280000204E65745F11
:103F30005461736B00000000191F0008F0B50B30CE
:103F4000154D20F007010024144A0FE003688B424E
:103F50000BD38B4205D95E1A43184768C3E9006743
:103F600000E04368136002C004E0021D10680028EE
:103F7000ECD12046002802D1286808B10020F0BD0D
:103F8000064A07481060074A121A22F00702C0E9E1
:103F9000002401202860D7E7B0000020AC000020FA
:103FA00084250020809500202DE9F04105460E462D
:103FB0001C4807681C480068001D00F0A1FA50B9B1
:103FC0001948006890F82C100120884017490968AA
:103FD000814316480160681C38B936B1124801683F
:103FE000091D134800F0CAFA1AE07C190E4800684F
:103FF0004460BC4207D20C480168091D0D480068A6
:1040000000F0A2FA0CE008480168091D0A4800689F
:1040100000F09AFA09480068844201D20748046017
:10402000BDE8F081640000205000002068000020FE
:104030006C05002058000020540000208000002063
:1040400010B5044600F0A6FA1D480068401C1C4943
:1040500008601C48006840B91A48046008460068B7
:1040600001280DD100F008F90AE01748006838B9B6
:1040700014480068C06AE16A884201D811480460A7
:1040800012480068401C1149086094F82C10012067
:1040900088400F49096808430D490860E16A01EB4F
:1040A00081010C4A02EB8100211D00F067FA00F04B
:1040B00083FA0548006808B10248006810BD000096
:1040C00060000020500000206C0000207C000020D8
:1040D00068000020B804002070B523E000F0F6FA74
:1040E0001348006808B9012000E00020054600F0F0
:1040F0000DFCBDB900F04EFA0D48C068C468201D23
:1041000000F0FEF90B480068401E0A4908600A48A2
:104110000068401E0849086000F04EFA204600F092
:104120000DF800BF044800680028D7D170BD00001A
:1041300058050020600000205C00002010B50446F7
:10414000206B00F049FA204600F046FA10BD00004E
:1041500030B54FF40053174800F007042CB1C01DD0
:1041600020F00700134C041B1B1B0246124C22605C
:104170000024114D6C60D018083820F007000F4C57
:10418000206000240D4D2D686C600C4D2D682C6056
:104190001146441A4C60094C24680C60084D4C6868
:1041A0002C60084D4C682C604FF00044064D2C608C
:1041B00030BD000080050020900000209800002005
:1041C000A00000209C000020A400002000BFFFF7FA
:1041D00083FF4FF0805003490860BFF34F8FBFF358
:1041E0006F8FF4E704ED00E02DE9F05F81460F46A4
:1041F00090469A460A9E0C9C4FEA8801A522206BA5
:10420000FCF710F8A8F10100216B01EB800B2BF0FB
:10421000070B002507E0795D04F134004155785D16
:1042200000B902E06D1C102DF5D300BF0021432022
:104230000155052E00D30426E66266640020A064C2
:10424000201D00F07EF904F1180000F07AF92461D5
:10425000C6F10500A06164620020E06484F85000AB
:1042600052464946584600F0FDF820600B9808B1C8
:104270000B980460BDE8F09F10B5002407E004EB44
:1042800084010F4A02EB810000F04EF9641C052CFA
:10429000F5D30C4800F048F90B4800F045F90B48FD
:1042A00000F042F90A4800F03FF90A4800F03CF9F2
:1042B00004480949086004480849086010BD000026
:1042C000B80400201C050020300500204405002013
:1042D000580500206C0500205400002058000020E4
:1042E00010B50146164800E0006803688B42FBD316
:1042F0000246436813448B4204D143684C6823440C
:10430000436001460A464B6813440468A34211D136
:104310000C4C03682468A34208D04B6804686468A6
:1043200023444B6003681B680B6005E0054B1B686A
:104330000B6001E003680B60884200D0016010BD93
:1043400090000020980000200A490968096809B90E
:10435000012100E0002121B14FF0FF31064A116038
:1043600006E004490968C968C868034A41681160E1
:1043700070470000540000208000002000BF05208E
:1043800080F31188BFF34F8FBFF36F8F00BF00BF63
:10439000FEE700002DE9F04105464FF0000800F06F
:1043A00095F92B48006808B9FFF7D2FE2948006844
:1043B0002840002847D145B1083505F0070020B155
:1043C00005F00700C0F108000544002D3BD022484D
:1043D0000068854237D8214E3046046801E0264601
:1043E00024686068A84202D220680028F7D11848E3
:1043F0000068844227D0306800F1080820683060E7
:104400006068401B102807D967196068401B7860F6
:1044100065603846FFF764FF0F4960680968081A4D
:104420000D490860084600680D490968884203D2B2
:10443000094800680A490860064960680968084335
:1044400060600020206000F061FA4046BDE8F08125
:1044500098000020A40000209C0000209000002074
:10446000A0000020001F4FF080730360001F21F0A8
:1044700001030360001F034B0360143802602038FF
:10448000704700007D43000810B50CA10F48FEF7EF
:10449000F3FD03E04FF4FA70FFF7E4FC0CA10EA06B
:1044A000FDF790FB0028F5D103E04FF4FA70FFF719
:1044B000D9FCFDF771FD0028F7D110BD342E204343
:1044C000495053544152540D0A0000000038014035
:1044D000434F4E4E4543540041542B43495053548F
:1044E0004152543D22544350222C223138332E3233
:1044F00033302E34302E3339222C3837360D0A0023
:1045000001460A69D1E901309860D1E90103586098
:104510005068884201D188685060002008611068A6
:10452000401E10601068704700F1080141604FF0B4
:10453000FF31816000F10801C1600161002101606B
:10454000704700210161704710B502460B685C1C82
:104550000CB9106907E002F1080000E04068446807
:1045600024689C42FAD944684C604C68A160886019
:1045700041600A611468641C146010BD42684A609E
:1045800093688B60936859609160086103685B1C55
:104590000360704700BF052080F31188BFF34F8F81
:1045A000BFF36F8F00BF03480068401C01490860DB
:1045B000704700008C00002006480068401E054936
:1045C00008600846006820B9002080F3118800BF09
:1045D00000BF70478C00002070B506463546D6B146
:1045E000083D2C460C4960680968084098B120686D
:1045F00088B90949606809688843606000F066F816
:104600000649606809680844044908602046FFF7C5
:1046100067FE00F07BF970BDA40000209C00002024
:1046200003484FF0E021486107200861704700000F
:104630003F19010070B50446002544B100F046F86A
:1046400000212046FFF7B0FC00F060F905463DB9B7
:104650004FF0805003490860BFF34F8FBFF36F8F57
:1046600070BD000004ED00E01CB5114800210B46B0
:104670008022CDE900100FA1104800F093F8044605
:10468000012C14D100BF052080F31188BFF34F8F98
:10469000BFF36F8F00BF4FF0FF3009490860012062
:1046A0000849086000200849086000F047F81CBD70
:1046B0008400002049444C4500000000CD41000822
:1046C000800000206C000020640000200248006888
:1046D000401C0149086070478800002012480068AB
:1046E00018B10120114908601DE000200F49086041
:1046F0000F480068B0FA80F0C0F11F0101EB8102A1
:104700000C4B03EB820042685268426000F10802E1
:104710004368934202D14268526842604268D2685C
:10472000054B1A6000BF704788000020740000200D
:1047300068000020B80400205000002010B50A488E
:10474000006840F47020084908600846006840F09E
:1047500070600860FFF764FF002004490860FBF701
:1047600003FD002010BD000020ED00E08C000020C3
:1047700010B500BF052080F31188BFF34F8FBFF342
:104780006F8F00BF00F04EF818B14FF08050044911
:10479000086000BF002080F3118800BF10BD00003A
:1047A00004ED00E02DE9FF4F85B0804689461746AD
:1047B000DDE912ABB800FFF7EDFD064656B1542017
:1047C000FFF7E8FD04460CB1266304E03046FFF72E
:1047D00003FF00E000247CB10020CDE900ABCDE96F
:1047E00002403A4649464046089BFFF7FDFC2046FA
:1047F000FFF726FC012501E04FF0FF35284609B000
:10480000BDE8F08F0549096809B9012005E00449B0
:10481000096809B9022000E0002070476C00002000
:10482000880000202DE9F04100272F48006800286B
:1048300051D12E480068451C2C4805608DB92C4884
:10484000D0F800802B480068294908602948C0F842
:10485000008029480068401C27490860FFF774FD64
:1048600000BF26480068854234D300BF2048006856
:10487000006808B9012000E0002020B14FF0FF30AF
:104880001E49086025E01A480068C068C468666868
:10489000B54202D2194806601BE0201DFFF730FE2A
:1048A000A06A18B104F11800FFF72AFE94F82C1042
:1048B0000120884012490968084311490860E16AEB
:1048C00001EB81010F4A02EB8100211DFFF756FE2B
:1048D000CCE700BF04E00C480068401C0A490860AF
:1048E0003846BDE8F0810000880000206400002008
:1048F0005400002058000020780000208000002094
:1049000068000020B80400207000002070B500246A
:104910000026FFF73FFE2A480068401E284908602D
:1049200008460068002846D126480068002842D082
:1049300024E02548C068C46804F11800FFF7E0FDD2
:10494000201DFFF7DDFD94F82C10012088401F4941
:10495000096808431D490860E16A01EB81011C4AAE
:1049600002EB8100211DFFF709FE1A49E06A096880
:10497000C96A884202D301201749086012480068BA
:1049800008B9012000E000200028D2D00CB1FFF7C8
:10499000DBFC1248056865B100BFFFF743FF10B1AB
:1049A00001200D4908606D1E002DF6D100200B4935
:1049B000086009480068FFF7FFFD304670BD000041
:1049C00088000020600000204405002068000020CE
:1049D000B804002050000020740000207000002067
:1049E0000040404040404040404041414141414002
:1049F00040404040404040404040404040404040B7
:104A00004005020202020202020202020202020245
:104A1000022020202020202020202002020202024A
:104A200002029090909090901010101010101010A2
:104A300010101010101010101010101002020202AE
:104A400002028888888888880808080808080808F2
:104A500008080808080808080808080802020202EE
:104A600040000000E1490008884A000800000020DA
:104A7000B8000000CC310008404B0008B80000200E
:104A8000C8A40000DC31000800000000010203049B
:104A900001020304060708090204060800000000DA
:104AA0000000000000000000000000000000000006
:104AB00000000000000000000000000000000000F6
:104AC0000000000000000000280005005014000055
:104AD00000000000000000000000000000000000D6
:104AE00000000000000000000000000000000000C6
:104AF00000000000000000000000000000000000B6
:104B000000000000000000000000000000000000A5
:104B100000000000AAAAAAAA0000000000000000ED
:104B20000000000000000000000000000000000085
:104B30000000000000000000000000000000000075
:0400000508000131BD
:00000001FF
